S0  Power Over Ethernet 
S0  Product Number: 22 
S0  Software Number: 0224 
S0  Param Number:  20 
S0  Build:  017 
S0  File Name - 22022420_0818_017.s19 
S0  Based On File - FSL_2021_03_04_13_52.elf 
S0  Time 13:48:35  Date Mar 04 2021 
S0  /************************************************************************************************/
S0  /*                                                                                              */
S0  /*                                                                                              */
S0  /*                                                                                              */
S0  /*                                                                                              */
S0  /*                                                                                              */
S0  /*                                                                                              */
S0  /*                                                                                              */
S0  /*                                                                                              */
S0  /*                                                                                              */
S0  /*                                                                                              */
S0  /************************************************************************************************/
S02C000050443639323030202020202020202020202020203032323432323032323432305F303831385F30313721
S31900001400F028002059DF000055DC00005DDC000000000000F8
S319000014140000000000000000000000000000000000000000BE
S319000014280000000065DC000000000000000000006DDC000020
S3190000143C1581000075DC00007DDC000085DC00008DDC00008C
S319000014500000000095DC00009DDC0000A5DC000061A6000010
S31900001464ADDC0000B5DC0000BDDC0000B5A7000051A8000066
S31900001478C5DC0000CDDC0000D5DC0000DDDC0000E5DC0000E5
S3190000148CEDDC0000F5DC0000FDDC000005DD000000000000F1
S319000014A0000000000DDD000015DD00001DDD000025DD00005A
S319000014B4000000002DDD000035DD000066596559FAFAFAFA9D
S319000014C834010000C814000027150000C014000000140000D5
S319000014DCFBF30000FCF300002C040000F028002059DF000079
S319000014F020DE00003EDE000000000000FAFAFAFAFAFAFAFAF8
S31900001504FAFAFAFAFAFAFAFAFAFAFAFAFAFAFAFAFAFAFAFA45
S31900001518FAFAFAFAFAFAFAFAFAFAFAFAFAFAFAFAD403003111
S3190000152C303A31303A3033000000000000004D61722031309C
S31900001540203230323100000000000000F83E490290010A0090
S319000015540100204E323C401FF83E490290010A000100204EB6
S31900001568323C401FF83E490290010A000100204E323C401F44
S3190000157CF83E490290010A000100204E323C401FF83E49027C
S3190000159090010A000100204E323C401FF83E490290010A004E
S319000015A40100204E323C401FF83E490290010A000100204E66
S319000015B8323C401FF83E490290010A000100204E323C401FF4
S319000015CCF83E490290010A000100204E323C401FF83E49022C
S319000015E090010A000100204E323C401FF83E490290010A00FE
S319000015F40100204E323C401FF83E490290010A000100204E16
S31900001608323C401FF83E490290010A000100204E323C401FA3
S3190000161CF83E490290010A000100204E323C401FF83E4902DB
S3190000163090010A000100204E323C401FF83E490290010A00AD
S319000016440100204E323C401FFF0010270A00A40032005000EA
S31900001658A400A4000000000000004A016801E7010000000094
S3190000166C1D0840011D0840011D0840011D0840011D08400166
S319000016801D0840011D0840011D0840011D0840011D08400152
S319000016941D0840011D0840011D0840011D0840011D0840013E
S319000016A81D0840011D0840011D0840011D0840011D0840012A
S319000016BC1D0840011D0840011D0840011D0840011D08400116
S319000016D01D0840011D0840011D0840011D0840011D08400102
S319000016E41D0840011D0840011D0840011D0840011D084001EE
S319000016F81D0840011D0840011D0840011D0840011D084001DA
S3190000170C1D0840011D0840011D0840011D0840011D084001C5
S319000017201D0840011D0840011D08400101203088014E000352
S31900001734A0820200FF01FF02FF03FF04FF05FF06FF07FF085B
S31900001748FF09FF0AFF0BFF0CFF0DFF0EFF0FFF10FF11FF120A
S3190000175CFF13FF14FF15FF16FF17FF18FF19FF1AFF1BFF1C92
S31900001770FF1DFF1EFF1FFF20FF21FF22FF23FF24FF25FF261A
S31900001784FF27FF28FF29FF2AFF2BFF2CFF2DFF2EFF2FFF00D2
S3190000179802004C044C044C044C044C044C044C044C044C0465
S319000017AC4C044C044C04555220220000000000000001020344
S319000017C00405060708090A0B4000DC056801D002490290019B
S319000017D43203E00011161400A4004A016801E70105053C0025
S319000017E89803640000000000000000000000000000000000E8
S319000017FC0000000000001E000E000C0188130B001C000E00CA
S319000018100A01A00F0B001E000E000A0188130B001B000E00F3
S31900001824080188130B001E000E00090188130B001C000E00F5
S319000018380901AC0D0B001E000E000C0188130B001E000E00BD
S3190000184C0B0188130B005DA1FD5DA1FE5DA2FF5EA3FF5EA3DA
S31900001860FF5DA2FF5DA1FD5DA1FEBFC0C0C1C1C0BFC0000179
S31900001874020203040506070708090A0B0B0C0700DC05780594
S31900001888FF00FFFFFF00FFFFFF00FFFFFF00FFFFFF00FFFF55
S3190000189CFF00FFFFFF00FFFFFF00FFFFFF00FFFFFF00FFFF41
S319000018B0FF00FFFFFF00FFFFFF00FFFFFF00FFFFFF00FFFF2D
S319000018C4FF00FFFF37400001030078001F051F0531051F0578
S319000018D80100FF01FF02FF03FF04FF05FF06FF07FF000000E1
S319000018EC0000000032008C002C01140000C2EB0B80B501787D
S3190000190004290ED0052904D0072906D008290CD00FE0401C62
S3190000191400F010F802BD401C00F004FB02BD401C01F0ECF8C7
S3190000192802BD401C01F02AF902BD012002BD0000F1B590B0F1
S3190000193C002569460D841098447838206043CC490818323036
S31900001950009010980178A54E0127012908D00A2900D131E199
S319000019640B2900D1FFE00E291CD0252900D11BE1432900D10A
S319000019782FE1442900D12AE1A82903D0A92900D10AE2AB29F5
S3190000198C00D12FE1AD2900D10DE2AF2900D12FE2B02919D04E
S319000019A0B12900D1BCE18DE2210009A801F02BFE09A8C1799F
S319000019B40691817905914E2104910391029141790191017901
S319000019C80091C37842780178D24874E20021200001F098FDCF
S319000019DC6946C8860321200001F092FD694688860221200030
S319000019F001F08CFD694648860121200001F086FD69460886F3
S31900001A040821200001F080FD6946C8850921200001F07AFD63
S31900001A18694688850A21200001F074FD69464885002120008E
S31900001A2C01F002FD694608850321200001F0FCFC6946C8844C
S31900001A400221200001F0F6FC694688840721200001F0F0FC86
S31900001A5407000B21200001F0EBFC06000C21200001F0E6FC27
S31900001A6805000098817C200001F0DCFA6946887701212000F3
S31900001A7C01F0DAFC694648840321200001F06CFC6946C87684
S31900001A900221200001F066FC694688760421200001F060FC67
S31900001AA4694648760021200001F05AFC6946087601212000C4
S31900001AB801F054FC05906846007E04906846407E03906846D1
S31900001ACC807E02906846C07E01906846408CC0B200906846C9
S31900001AE0837F008D8007800F6946C98C8900042211400143FF
S31900001AF46846808CC000082210400843390110221140014398
S31900001B087001202210400843AA0140210A4002436846C08EDE
S31900001B1CFB2101406846808E80000843F72101406846408EF6
S31900001B30C0000843EF2101406846008E00010843DF21014076
S31900001B446846C08D40010843BF2101406846808D8001084358
S31900001B584006400E6946498DC9010143C9B2A448A9E1052135
S31900001B6C200001F0CDFC05000421200001F05CFC6946888338
S31900001B8064206843711C884201D2050000E035006846808B1F
S31900001B94642242438A4200D3320068468283002392B2A9B2E6
S31900001BA8CA48F6E00EAA200001F003F80EA8818801914E21B7
S31900001BBC009143880288C188C4487AE10421200001F09EFCA9
S31900001BD0C1B2C2A007E0062100E00721200001F095FC01006D
S31900001BE4BEA001F00DF96EE1FFFF00000121200001F08AFC8C
S31900001BF8800000994978102211400143032008436946C875D8
S31900001C0C0098007888750421200001F00DFC210002F024F843
S31900001C20050000984088002817D06946888200980079042840
S31900001C3417DA07AA6846818A200001F095FF00280FD16846E0
S31900001C48818A280002F03CF80A2808DA6846858A05E004214E
S31900001C5C200001F0E9FB694688820821200001F0E3FB6946F9
S31900001C7088836846808B8001004901E058F2FF1F09780901F8
S31900001C84974A5118097A8907890E0143684681830421200017
S31900001C9801F038FC6946898B0843694688830521200001F00E
S31900001CACC3FB0605360D0921200001F0BDFB000330430600A3
S31900001CC00A21200001F0B6FB81033143684601830B212000A7
S31900001CD401F0AEFB06000121200001F0A9FB6946098BF20347
S31900001CE80A4392B204926946897D03916946C97D02917B4926
S31900001CFC097849080F407F1CFFB20197401CC0B200906846BD
S31900001D10838BDBB2828A290077A0D0E0BCDD0000807802A9E6
S31900001D2448701098C078694608721098C279652A01DA160081
S31900001D3800E0642610988479002C00D001244179002900D0AE
S31900001D4C01216846017510980079002812D100272100684615
S31900001D60007D01F0E7FF020007A801906846008900903300D9
S31900001D7421001098407801F015FF07E021006846008901F09F
S31900001D887CFF69468883002003003A006846818B5CA001F008
S31900001D9C33F894E00098807E410801220A40074039004F482B
S31900001DB01EE00521200001F0A9FB05000421200001F038FBD2
S31900001DC46946888314206843711C884201D2050000E0350028
S31900001DD86846808B142242438A4200D332006846828392B2B5
S31900001DECA9B2404801F008F869E000BFD4DD0000052120000A
S31900001E0001F084FB05000421200001F013FB69468883142021
S31900001E146843711C884201D2050000E035006846808B1422D6
S31900001E2842438A4200D33200684682830421200001F068FBFE
S31900001E3C07000021200001F063FB69460875200001F042FC7A
S31900001E50069090204000A100224A511808180190008800053E
S31900001E64860F234800900078802800D1300000010643200049
S31900001E7802F0B6F80199098800018A05940F04434804410F6F
S31900001E8C00984078802800D1080000010143C9B20491684668
S31900001EA0808B0390F6B20296E4B201946846007D0090FBB2B7
S31900001EB4AAB26846017E00BF15A000F0A1FF02E08020694656
S31900001EC808846846008C11B0F0BD0000E8DD0000F0DD00003A
S31900001EDC256300002577000000FDFF1FE2FEFF1F4028000047
S31900001EF0382800004CFFFF1F257725772563256325632563B7
S31900001F042563257700000000257725632563000025632577CF
S31900001F1825632563256325632577256300000000F1B592B083
S31900001F2C002069460886A44800888880A3480090A3480290CA
S31900001F403024129F3F78022F00D1A3E1042F00D1D7E3052F53
S31900001F5400D177E3092F00D12AE10B2F00D137E10C2F00D105
S31900001F6898E1132F01D100F01DFC1E2F00D161E32B2F00D13C
S31900001F7CA6E1312F00D16CE2322F00D166E2332F00D17BE23B
S31900001F903A2F00D11EE23D2F00D173E1472F00D157E2482F75
S31900001FA400D152E2492F00D110E24B2F53D04C2F54D04D2F2B
S31900001FB855D04F2F56D0502F57D0562F00D188E1592F00D188
S31900001FCCB8E15A2F00D1B3E1612F00D101E1632F00D1F7E0F7
S31900001FE0842F00D126E1852F00D1CDE1862F00D1C8E1872F44
S31900001FF465D0892F00D1A2E18A2F00D19AE18B2F00D11FE201
S319000020088C2F00D119E28D2F00D113E28E2F00D10DE28F2F7A
S3190000201C00D107E2902F29D0912F2AD0922F2BD0932F2CD004
S31900002030942F2DD0952F00D1C8E1962F00D1C3E1982F00D1C6
S31900002044A1E1992F00D199E19C2F00D13AE2A12F00D105E3AC
S31900002058B02F00D17FE2B12F00D179E2B22F00D1A7E2B32F34
S3190000206C00D170E2B42F00D16BE2B52F00D165E2B62F00D184
S319000020805FE2B72F00D159E2B82F00D153E2B92F00D14DE23E
S31900002094BA2F00D1E8E2BB2F00D16BE3C02F00D17EE3C12F94
S319000020A800D1F0E0C32F6AD0C42F76D0C52F00D186E3C62FF5
S319000020BC00D189E39EE3129844780C2C60DA200001F08BFADE
S319000020D008A90870684680880121A140084206D1002008A922
S319000020E4487088708F4EFF2022E00C21200002F0D1F9050026
S319000020F80B21200002F0CCF9690105010D430221200002F0D6
S3190000210CC5F9284308A9487008A8407888700021200002F094
S31900002120BBF986B20321200002F0B6F90A2102F0F5FB08A916
S3190000213408710621200002F0ADF908A9C8707A4861007A4A69
S319000021485118085A0A2102F0E5FB08A948710721200002F011
S3190000215C9DF908A988710821200002F097F908A9C87108A8C4
S319000021700E9008200DA908700DAB320021006D4800F040FE73
S319000021843EE3129844780C2C00DB9FE1200002F02CFC0600E7
S3190000219802F03BFC02003100A7E202F036FC040002F0B9FD78
S319000021AC02002100C848A0E2C8480088FA21890002F0AEFB8D
S319000021C081B2E8E22C1D0020E0FEFF1F66FFFF1F8188E0E255
S319000021D41298401C00F04EFB32E2129840780428D2DA04015F
S319000021E80822002108A802F0AFFD00200090002702250098AE
S319000021FC08A90E180121E0B201F016F93178B84008433070B2
S31900002210641C04276D1EF3D10098401C00900828E9DB08A892
S319000022240E9008200DA908700DAA12984178C4E2A94CAA4805
S31900002238C07B002804D120684178FD220A4042702068A64D7D
S3190000224C002107910691A54909780591002104910391029146
S3190000226029780191C17800918378427801789F4800F0C8FD9D
S3190000227404220021206802F069FD00202870BFE2032100208C
S3190000228800F0C6FDBAE200F03BFEB7E208A800F0DDFC02E0D0
S3190000229C08A800F0BCFC08A8C079049008A88079039008A867
S319000022B04079029008A80079019008A8C078009008A88378EC
S319000022C442780178894896E2009800788007800F04210143F5
S319000022D824E012984178162904D1009800790407240F1AE028
S319000022EC0724282902D10098007A03E0502903D10098807AB5
S3190000230004400EE0CF0801200C40A0401299C870F021490030
S31900002314064AD219515C0840040000D00124210073A037E239
S31900002328FFFF00004E02000000FDFF1FFCDD0000482402E00B
S3190000233C182400E000240622002108A802F002FD00200090AD
S319000023500025009808A90F180821E0B201F002F80600387882
S3190000236469008E4006433E70641C6D1C042DF1DB0098401C37
S319000023780090062854DAE7E7482402E0182400E000240622DB
S3190000238C002108A802F0DEFC002000900025009808A90F1855
S319000023A00621E0B200F0DEFF0600387869008E4006433E70B9
S319000023B4641C6D1C042DF1DB0098401C0090062830DAE7E77F
S319000023C8482704E0302702E0182700E000270622002108A830
S319000023DC02F0B8FC002000900025009808A90E1800240721B1
S319000023F0F8B200F0B7FF002800D002240821F8B200F0B0FFF3
S31900002404002800D00120317820436A009040084330707F1CD9
S319000024186D1C042DE6DB0098401C00900628DDDB08A80E9077
S3190000242C0620BEE05C27602415E051275C2412E0462751240A
S319000024400FE03B2746240CE030273B2409E0252707E01A27C8
S31900002454252404E00B27162401E000270B243D00EDB2A542DB
S3190000246800D39DE038206843CB49081844300178280000F0CE
S3190000247CD7FDE91B08AA50546D1CEDE7162538206843C44970
S31900002490081844300178280000F0C8FD08A94919163908706E
S319000024A46D1C1A2DEFDB08A8C078039008A8807802900020AF
S319000024B801900090002308A842780178C24898E112984478FA
S319000024CC092C13DBCE4899E104DE000002FEFF1F4CF2FF1FE7
S319000024E040090020FCFCFF1FF6090020482800000CDE0000EA
S319000024F4256300000B20444327000B37FFB2250005E0FF264B
S31900002508E4B2281B08A90E546D1CEDB2BD4207D2052128007F
S3190000251C00F08AFF4608FF2EEFDCEFE708A80E90381B3EE051
S319000025305C27602415E051275C2412E0462751240FE03B2778
S3190000254446240CE030273B2409E0252707E01A27252404E0E7
S319000025580B27162401E000270B243D0002E0FF2030706D1C5F
S3190000256CEDB2A5421AD2E81B08A90E1812980078B0380A28CD
S3190000258007D20521280000F055FF052102F0C6F9EAE7052108
S31900002594280000F04DFFFF28E3DC0521280000F047FFDFE799
S319000025A808A80E90E01B0DA9087097A000F026FC24E1162519
S319000025BC08A84419163C12980078B22807D10521280000F094
S319000025D031FF052102F0A2F90BE00521280000F029FFFF2896
S319000025E404DC0521280000F023FF00E0FF2020706D1C1A2D3E
S319000025F8E0DB04210D2001F04BFF040008A8C078039008A852
S3190000260C80780290634800784000C549085A0A2102F07EF9C3
S3190000262001905F4880880A2102F078F90090A3B208A8427883
S31900002634017800BF78A0DEE01298401C00F036FA6946DCE0ED
S31900002648C07801900298807800905348008B0306DB0F0298DA
S3190000265C4278017872A0CAE00289C18873A044E01298407808
S31900002670002838D0572841D10822129880780001CE4909188A
S319000026840A310FA802F06CFB6846808F0A2102F043F969462C
S3190000269808806846407808A908706846007848700FA8847880
S319000026AC08A884700FA8C57808A8C5700FA880880A2102F0BB
S319000026C02DF9694608806846407808A908716946097808AA31
S319000026D4517108A94979029101900095230008A885E04B4833
S319000026E84088088068460278417800BF52A000F085FB83E023
S319000026FC802040007FE0129884780B20444327000B37FFB213
S3190000271012984078062801DB3F4875E0002609E012984178F5
S31900002724200000F01DFEF6B208A98855641C761CE4B2BC4294
S31900002738F2D308A8807A079008A8407A069008A8007A0590C2
S3190000274C08A8C079049008A88079039008A84079029008A80F
S319000027600079019008A8C078009008A883784278017800BF40
S3190000277434A040E0129846780B2E01DBB54841E0042E00DBAF
S3190000278808268320400071008A4A5118095AB1A000F034FBA5
S3190000279C32E000BF58F2FF1F08A800F072FA17E0AC4800688B
S319000027B0006A0E9009200DA908700DAA302100BF27A000F032
S319000027C41FFB1DE008A9C74804E000BF002D000008A9C54896
S319000027D800F080FA08A84079029008A80079019008A8C078E0
S319000027EC009008A883784278017800BF1BA000F003FB01E01C
S31900002800802008866846008E13B0F0BD0180000025530000EB
S31900002814100800200380000025632563257725772577256383
S3190000282825630000256325632563256325630000257725772E
S3190000283C000000002563256300000000256325632563256352
S319000028502563256325632563256325632563000025632553B6
S3190000286400000000256325632563256325632563000000002A
S31900002878E0B586B000256A461582BA490E780278172A51D0AA
S3190000288C1A2A00D196E0572A0ED05F2A05D0602A66D0AD2A53
S319000028A000D1ABE0D0E08B784A7831006DA000F0A9FACDE0CF
S319000028B4467830001038702805D330009038302801D3D02E42
S319000028C801DBA948C2E07000C02E02DBA749154A04E0802E6B
S319000028DC05DBFF21C943A54A1018455A02E0300133490D5A2A
S319000028F0B6060B2002F0ABFAB10D304A56180005000E029005
S31900002904307A8007800F0190F0880A2102F004F80090B78808
S31900002918768828000A2101F0FDFF81B23B00320050A08AE06D
S3190000292C1808002092480578280121490E184E2003906800D8
S319000029408F49085A0A2101F0E9FF029001954E200090B388DE
S3190000295475881E00884880880A2101F0DDFF010033002A0020
S3190000296844A06AE0834880880A2101F0D3FF0290002E03D1D2
S3190000297C06467F48408907E07D48C0880A2101F0C7FF060089
S319000029907A4800890A2101F0C1FF07007748057801956800C5
S319000029A47649085A0A2101F0B7FF0090BBB2B2B2029900BF6B
S319000029B834A042E000FDFF1F04210D2001F068FD86B2002EE6
S319000029CC01D100200CE06A4880880A2101F0A0FF642148438E
S319000029E0310001F09EFF6421484380B201904E2000904E23DC
S319000029F44E22310027A022E0B14D0020295E5E48007802F0AA
S31900002A086DFA06000020295E5A48007802F0B0FA58490F78C2
S31900002A1C0021695E0191009030000A2101F078FF85B2380163
S31900002A30A549085A0A2101F071FF82B22B00390018A000F070
S31900002A44DFF903E080204000694608826846008A06B0E0BD19
S31900002A58048000002577000050F2FF1F25632563256300004C
S31900002A6C2577257725772563256325630000000025772577AC
S31900002A802577256325632577256300002577257725772577FC
S31900002A942563000025772563256325632577000025632577AC
S31900002AA825772563257700001FB500240078212810D18448EE
S31900002ABC0188039101790291817901914188009143794E22C4
S31900002AD0002100BF06A000F095F901E080246400200004B02B
S31900002AE410BD0000C409002070FFFF1F25632563256325775D
S31900002AF8256325632577000030B587B00021002402780E2A05
S31900002B0C16D0522A28D104AD6980C1786D4A128801238B4041
S31900002B201A4206D029708078687004A9042002F03DFB698814
S31900002B3467A000F065F914E0417805A800F061FD05A8417824
S31900002B48039181790291417901910179009100238278017865
S31900002B5C68A000F051F900E08024200007B030BD4BFFFF1F6D
S31900002B700180000080FEFFFF3808002058F2FF1F1808002046
S31900002B8470B500240078542812D1012001F094FE060002204B
S31900002B9801F090FE0500002001F08CFE33000200290000BFE7
S31900002BAC58A000F029F900E08024200070BD70B506000D00FC
S31900002BC0140008220021200002F0C2F804210D2001F062FC2F
S31900002BD4E0800621300000F02BFC20281ADA0121300001F09A
S31900002BE8D9FC20800021300001F0D4FCA0800521300000F0E6
S31900002BFC1BFC6080252D01D1642100E0142148438021490293
S31900002C10884200D3481E608070BD79B500240025002603E01A
S31900002C2400980460002400250121300000F06CFC000603D0CE
S31900002C3820000124AC4004436D1C761CF6B2182EECD0302EE7
S31900002C4CEEDB0098446073BD79B500240025002603E0009821
S31900002C600460002400250221300000F04FFC000603D0200026
S31900002C740124AC4004436D1C761CF6B2182EECD0302EEEDB02
S31900002C880098446073BDF0B50022114B38270024002556198C
S31900002C9C7E439E1944363678062E04DA26000124AC403443BE
S31900002CB0E4B26D1C082DF0DB08320470401C302AE9DBF0BD16
S31900002CC41008002000FDFF1FD41700002C1D002025770000B3
S31900002CD858F2FF1F30B500230022841825782D0164782407E2
S31900002CEC240F2C43CC54921CD2B25B1C062BF2DB30BD000078
S31900002D002563256325632563256325632563000025772577C9
S31900002D1425770000F8B50400C148627802708170002951D1C7
S31900002D28834D0D21200002F032FE002806D12A00290000BF40
S31900002D3C2CA000F05BF8F1BD7D4E20787DA7717889070BD5E0
S31900002D50022809D0002805D1A078072802D1E07855280CD09D
S31900002D64B0492DE0002808D0012810D0022812D0042816D028
S31900002D78AB2818D01BE0A01C02F04CFEB749884216D10020C2
S31900002D8CB6494876F1BDA01C03F0CEFCF4E7A01CFEF7AEFD12
S31900002DA00028EFD1F1BDA01C03F04CFDEAE7200003F0C8FDE2
S31900002DB4E6E728003178002901D0032915D10100380000F032
S31900002DC817F8F1BD0D21200002F0E1FD00280AD02078AC28A8
S31900002DDC07D16078FF2804D10F222100002003F019FEF1BD07
S31900002DF025772577000000000EB400B501AA0100522004E018
S31900002E040EB400B501AA0100032000F0A3F8009804B0004750
S31900002E18F3B58BB0002507950995089503F0D9FFB94800886D
S31900002E2C00900022012401209040C0B200990300C9B21942E0
S31900002E4003D107990B43DBB2079376498B181B79234204D060
S31900002E54089F06003E43F6B208965B08234203D0099B184356
S31900002E68C0B20990521C082ADFDB0798000600D00225A64861
S31900002E7C0068C0784200042002402A430BA80078002801D063
S31900002E90FF2008706B4630201856032802D00CA80078887001
S31900002EA49C4D9D48008A06900998C0B205900898C0B20490D8
S31900002EB80798C0B203902002285C0290487801900020009023
S31900002ECC94480378002100BF06A0FFF795FFFF20E230285CD0
S31900002EE04009204201D004F013F90DB0F0BD000025632563E2
S31900002EF4256325632563256325632563256325770000000070
S31900002F0800B585B08348817B0491018A0391C17D0291817D7B
S31900002F1C0191417D0091037DC27C817C06A0FFF76BFF04F005
S31900002F30EFF805B000BD0000FFFF0000E1060020257700008D
S31900002F4425632563256325632563256325772563000000001F
S31900002F58F2B588B0050014004E22182101A804F005F9684675
S31900002F6C05712D48007801A948700225002604E00170761C52
S31900002F80F6B2761CF6B2089883191978002933D0182E31DA0B
S31900002F946A1CD2B201A84019252902D001701500EDE75B78CA
S31900002FA8532B0AD0632B02D0772B14D0E2E7241D211F097806
S31900002FBC01701500DDE72768241D79680029D8D03A78002A53
S31900002FD0D5D001F0C7FE38782D18EDB2CFE7241D211F098830
S31900002FE46A461180694649780170694609784170AD1CF0E730
S31900002FF80D2101A802F0DFFC022008490856002801D0022827
S3190000300C04D10F2201A9C0B203F004FD0020C043014988702F
S3190000302009B0F0BD28F2FF1FFAFF000080B50200302A01DB92
S31900003034112002BD38235A43374B9A18493293789B0702D567
S3190000304800F010F802BD1278D20903D0080000F065F802BD6B
S3190000305C00F0B6F802BD0000F0FF00004009002038225043B8
S319000030702A4A12184920135CD80905D0792901D12B207047A4
S3190000308447207047012000291CD0491E1ED0091F1CD01B3921
S31900003098012933D93139042930D9491F30D00D3924D0C91EBF
S319000030AC032923D9091F022922D9891F1AD0C91F22D0891E81
S319000030C00AD0491E1CD021E0590901421FD006E059090142A9
S319000030D408D002E05909014201D002207047D808800701D0A1
S319000030E80020704701207047492070474A20704748207047BF
S319000030FC4B20704745207047462070474C2070474420704721
S319000031102C1D00204CF2FF1F00FDFF1F58F2FF1FFDFCFF1F46
S31900003124022831D9103802282ED9001F2CD0113830D01D382B
S319000031382AD00E382AD0083802282BD9C01E27D0C01E0228F8
S3190000314C28D9C01E2AD0401E032821D90838022820D9C01ECC
S3190000316020D0401E20D0401E20D0801E20D0401E20D0401E8F
S3190000317420D0401E20D0401E20D0C01E12D0401E02D0401E67
S319000031881CD01DE02B20704733207047112070473F2070473A
S3190000319C31207047382070473A2070473920704732207047D8
S319000031B03E2070472D2070472E2070472F2070471A207047F0
S319000031C4472070472C20704738225043974A1218012000298E
S319000031D80BD0491E07D0491E0BD0491E0CD0491E00D1B5E072
S319000031EC491E6FD00B3967D0491E6BD0491E00D17EE0491E09
S3190000320000D1A7E0491E63D00C39012900D877E0891E022952
S3190000321426D9C91E26D0491E012926D9891E022926D9C91E7C
S3190000322878D0491E36D0491E36D0491E6AD013393AD0491E0C
S3190000323C62D0891E00D18BE00D395FD0491E5FD0491E7DD0A4
S31900003250491E59D0491E59D0491E59D0491E59D0491E022992
S319000032645CD9C91E56D0491E012959D9891E022958D9C91E61
S319000032785AD0491E4ED0491E02294DD9C91E03294CD9091F75
S3190000328C02294BD9C91E4BD0491E4BD0491E01294AD9891EFA
S319000032A04AD0491E4AD0491E4AD0491E4AD0491E4AD0491E8F
S319000032B426D0891E3AD0491E0ED0491E46D04DE04932117866
S319000032C84909014249D00AE049321178490901420CD004E0FB
S319000032DC4921515C4909014201D00220704749321078C008B7
S319000032F0800701D000207047012070472B2070471B207047C9
S31900003304122070471C207047252070472420704726207047DF
S319000033183D2070474D2070471F2070471E207047342070476D
S3190000332C3620704735207047202070473C2070470620704787
S3190000334007207047082070471A20704743207047452070478F
S319000033540320704704207047212070471120704738B5302885
S3190000336837DA38225043304A14182500383509292FD801A03B
S3190000337C405C8744084C1C2C3C521222324228782C00002111
S31900003390217032BD0321287800F021F8F6E7A8783A34F4E790
S319000033A40121A87800F019F8F8E7E8783B34ECE70321E878C7
S319000033B800F011F8F8E728793C34E4E70121287900F009F893
S319000033CCF8E768783934DCE768793D34D9E7002032BD0200D5
S319000033E00800904200D91000704730B50100382048430F4A37
S319000033F4151845352C78200001236D796D091D4212D1042C62
S319000034080ED1AB4C90256D0089006118495B0909890708D191
S3190000341CF1214900615C8908194200E0072C00D1002030BDA1
S3190000343058F2FF1FF1B582B00346302B03DB062961D15020EF
S31900003444FEBD382463439C4CE31800931D4649351E4626369A
S3190000345803240C2953D801A77F5CBF440C141E242A2E363A23
S3190000346C42588088960028784108032043E06846007AFFF7C1
S31900003480B4FFFEBD287841093AE02878810937E0308CFEBD08
S31900003494184652300088FEBDB07FFEBD307C10282FDA27E01D
S319000034A8707B204203D128784008204201E00440032C24D156
S319000034BC11E0317C00290CD0491E0CD0491E012907D91E3948
S319000034D012D0891E10D0491E012915D813E00320FEBD022008
S319000034E4FEBD307804280CD004E0307C022801D0032806D1D6
S319000034F80120FEBDA878C10801200840FEBD0020FEBD0000F6
S3190000350CF8B502000020302A09DB042901D10320F2BD062998
S3190000352001D007294BD16648F2BD634B9024640095005D1946
S319000035342E19550001240A293FD801A77F5CBF440A10141AA4
S319000035482830343E646A7400308880060DE031882CE03088B5
S3190000355C810929E038204243554880184930017822E0308804
S319000035700007800FF2BD7088F2BDFF20EC305919081801E0A7
S319000035844F48401901786A465170407869460870F320400021
S31900003598185C0009204201D14E20087068460088F2BD3088E5
S319000035AC410801E03088C10901200840F2BD3088C00BF2BD0F
S319000035C080B5010040A0FFF717FC01E003F0F8FD002003F0F6
S319000035D418FE0028F8D13C4800E000BF401EFCD101BD80B595
S319000035E801218140384A13880B4205D1002052880A4203D08D
S319000035FC022002BD00F022FD02BD38B504000D000020207157
S3190000361006212800FFF7A6FE2179800108432071092128006E
S31900003624FFF79EFE217940010843207108212800FFF796FE68
S31900003638002805D02179C000012202430A4322710721280089
S3190000364CFFF78AFE217940000843207103212800FFF7EAFE06
S31900003660E0702079E178890001432171280000F031F80090DE
S3190000367468460178217001212800FFF7D9FE60710021280053
S31900003688FFF740FFA07102212800FFF73BFFE0713820684313
S3190000369C07490818443001782800FFF7C1FC607006212800BD
S319000036B0FFF7C0FEA07031BD00FDFF1F58F2FF1FFFFF0000CD
S319000036C4F0060020257700007AD401002C1D002070B582B02B
S319000036D806000121C0B2FFF715FF04000821F0B2FFF710FF60
S319000036EC05000921F0B2FFF70BFFE107C90F6A0002231A404A
S319000037000A4384000420044014430A21F0B2FFF7FDFEC000A1
S3190000371408210840204369460870009876BD38B401210022A5
S319000037280368001D002B0BD00468001D0C4202D04D466D1E32
S3190000373C64192260241D1B1FF0D0FAE732BC704710B50024CA
S31900003750382060438F49081826300421017030210174002199
S31900003764200000F03EF8641C302CEFDB10BD80B500F007F86E
S3190000377887480078002801D000F063F801BD10B500243820AD
S3190000378C60438149081836300178827B202A0DDA032907D086
S319000037A0232903D0242905D0302918D1202115E0022113E040
S319000037B4222111E0012907D9891E0CD01E3903D0891E01D098
S319000037C80E3908D1232101700121E0B200F007F801E003216A
S319000037DC0170641C302CD2DB10BD10B538225043694A10187F
S319000037F032304278F02313404370002202704378EF241C40CC
S319000038044470002900D0828210BD63490978490601D41420A7
S319000038187047382148435D4908182630007800280BD002283A
S3190000382C03D004D3032804D007E012207047112070471320EE
S31900003840704710207047F020704710B5B5480078400604D5B0
S31900003854002000F01BF8002802D0012000F016F800200021DD
S3190000386838224A43494B9A182632137C042B03DB537BF02443
S3190000387C1C40547304231370491C3029EEDB4349087010BD0D
S31900003890F1B59CB001206946887000204870A1480290007A97
S319000038A4C1090FA803F020FB394800784000BC490D5A0026B0
S319000038B8002712E0012208216846007800F098FC01983330EB
S319000038CC0078FC210140800804400C43019833300470761CEF
S319000038E0F6B2684644782000303086424DDA302E04DA0FA85A
S319000038F4805D6946087005E0FFB203A8C05D694608707F1C96
S3190000390868460078FFF77FFF0299097849060FD5302E0DDA77
S3190000391C01001139032909D26846007803A9085568464078AA
S31900003930401C69464870D2E703001CA80278A9B2684600783F
S3190000394400F02CF8ADB2854203DA002569468D70C3E72D1A90
S3190000395868460078382148430C490818019033300178032442
S3190000396C8A080320104003220A408242B1D01CA90978002919
S31900003980ADD003289AD1002299E7684680781DB0F0BD000058
S3190000399458F2FF1FF8090020E5FEFF1FF7B586B01D006846E2
S319000039A8007E38214843BE490818029007462837BC7B684659
S319000039BC007E03F0A7FC694608800426202C02D10520B8730D
S319000039D002E0232C00D1BE73102D07D005D3122D69D039D33A
S319000039E4142D01D039D396E0387F202824DA00216846007EEB
S319000039F8FFF7F5FE2120B87302984930019000784007820F6C
S31900003A0C08216846007E00F0F1FB0198407806430198467086
S31900003A20102D01D1202400E02224019800788106C90F6846F5
S31900003A34007E00F015FA0AE001216846007EFFF7D0FE102DC2
S31900003A4801D1232400E0242400206946088060E0387F20288D
S31900003A5C2EDA3888B8816A4639886846007E00F07FF868469D
S31900003A70808B6946098888420BD28C480078C0094BD0F88B97
S31900003A846946898B884202D208466946088008A800780028F2
S31900003A983FD068460088F883112D01D1002438E0387F202809
S31900003AAC01DA022433E0032431E0387F202808DB032C2CD1A6
S31900003AC0232401216846007EFFF78DFE25E003A96846007EF9
S31900003AD400F028F80425680003A9095A00291AD0B9816A462B
S31900003AE86846007E00F03EF802280ED0684600886946898B71
S31900003AFC884208D208A80078002808D068460088F88301240E
S31900003B1003E06D1E6DB2002DDFD5BC736846008809B0F0BD62
S31900003B24E1FEFF1F70B5002200235E4E5C00382545437519A5
S31900003B382D192D8D0D535B1C052BF5DB501C030052008A1839
S31900003B4C08E014885D004D192E88A64201D216802C805B1CEE
S31900003B60052BF4DB0200052AECDB70BDF7B504000D00382012
S31900003B7460434C490F1832370126F87D41093140200000F008
S31900003B88A9F80299019100953B780200F87D400906403100D6
S31900003B9C200000F003F8FEBD18080020F7B582B018000021F2
S31900003BB0002500246A461170002802D16846008D3FE03B49A8
S31900003BC44843642100F0ABFE394946186846007B002800D03D
S31900003BD876086846008D704380003549884221D20195344F93
S31900003BEC344D01987043642100F095FE281A390000F091FEF0
S31900003C0001006846008D784300F08BFE0500641C0198854255
S31900003C1402D0E4B20A2CE5DBFA20400045432800390000F005
S31900003C287CFE0AE06846007A382148431C490818463000888F
S31900003C3C02216A4611706946098A80B2814207D2084669460D
S31900003C500978002902D101216A4611700B9908806846007838
S31900003C6405B0F0BD80B5382251430E4A511832310A78CB7DD3
S31900003C789906C90F00F001F802BD10B504000223002A0CD01F
S31900003C8C002900D0032360430C3292B2DA405043094900F0EB
S31900003CA040FE201A80B210BD58F2FF1FE8FEFF1FD430000023
S31900003CB4DC05000040787D0110270000404B4C0050C30000BE
S31900003CC8814201D2401A02E0C2435018401C80B2704700005E
S31900003CDC38B5A64C93229200A35C0322802B07D190235B00F3
S31900003CF085006419E35A9C0A0323234038246043B34C241812
S31900003D043334032B02D1E07D800903E0A07D43080320184091
S31900003D18E378102B07DA207880080240032A01D1002000E0B9
S31900003D2C012000F001F832BD0200A74B03D002280BD002D3E3
S31900003D400AE0188808E0A4480078C00701D5988802E0588814
S31900003D5400E0D888002900D0400080B27047F1B582B068466D
S31900003D68007A38214143984A5118463100910D887F4F902183
S31900003D7C490080003818465A01243106890F21406846007AF7
S31900003D90FFF7A4FF93218900795C802901D13105890F0229FA
S31900003DA42BD0A84200DA05008B4881888D420DDA41888D4217
S31900003DB801DA007800E040782E0045432800642100F0A8FD0E
S31900003DCC3518ADB200984079009989898D420CD2810821429C
S31900003DE006D00A2203216846007A00F005FAF7BD042101436F
S31900003DF401E0FB21014000984171F7BDF8B500260024724FC1
S31900003E08382060433D183635A87B202815DA2878102812DBC6
S31900003E1C0121287D800808420DD0E87C40090140E0B200F0A6
S31900003E3019F82882E0B200F0A1F8287DFB2101402975641C82
S31900003E44302CDFDB38207043381844300078202802DAF0B241
S31900003E58FFF783FF761C302EF2DBF1BDF2B582B006005D49E8
S31900003E6C90225200B300CB189A18009293229200895C032708
S31900003E80802907D16946009A1288920A032313400B7101E052
S31900003E946A4611716946097AFFF71EFF04006846007900284A
S31900003EA805D0022831D007D3032805D03AE0009840888442E6
S31900003EBC26D234E0382046434248801945300578072D01D0E5
S31900003ED0052D01D1002511E00079400807403A006846017A53
S31900003EE4280000F023F8002F02D0042D00DA2000250084427A
S31900003EF800D9050068460079032813D100984088A8420FD370
S31900003F0C009845880CE000980088000607D51720604380B23C
S31900003F20142100F0FBFC050000E02500A8B2FEBD18B52B4C08
S31900003F34042812D18B235B00E318012A02D0022A09D00AE074
S31900003F48F3204000205CC00701D5588808E0188806E0988885
S31900003F5C04E083235B0040002018C05A002902D0002A00D0DF
S31900003F70400080B212BD000000FDFF1F10B5184A9321890077
S31900003F84535C0100802B06D190235B008C001219D25A1205E9
S31900003F98930F032B16D1382251430B4A511846310A7992061A
S31900003FAC920E0D4B1B780C88A34203D2402313430B7100E00D
S31900003FC00A7109798A09082100F016F910BD000058F2FF1FFA
S31900003FD4DC170000E6FEFF1FE417000000FDFF1FEA170000C7
S31900003FE83E4A3F49535C802B07D19021490080001018405A41
S31900003FFC8005800F7047002B1ED038225043384A10183630CA
S319000040100278102A10DB052B14D0C07B002805D0401E022823
S3190000402406D9C01E08D005E0032B09D0012B07D0062B05D0F8
S3190000403801207047022B01D0012BF9D100207047F8B504001A
S3190000404C284F3878002845D00921200000F01EFA06000A2173
S31900004060200000F019FA050004210D2000F014FA20490978E4
S31900004074B6B2721880B2824201DA0920F2BDADB2AE4205D271
S31900004088A81B80B2814201D20820F2BDB86A6100C8408007AA
S3190000409C800F05D0022807D004D3032806D019E00520F2BD00
S319000040B00620F2BD0720F2BD0021200000F0F8FD01280BD021
S319000040C40121200000F0F2FD012805D00221200000F0ECFDA7
S319000040D8012801D10A20F2BD0120F2BD00FDFF1F4B020000C2
S319000040EC58F2FF1FF0080020F618000080B5090201436846FA
S3190000410001806946052001F051F801BD80B509020143684626
S3190000411401806946072001F047F801BD80B58F230340080119
S3190000412818434006400ED1010143684601706946102001F089
S3190000413C37F801BD80B56B46197058709A706946132001F068
S319000041502DF801BD70B5017830293ADAFF22EC324900224B72
S31900004164591889180A78827049780171FF2A2ED01E49C24BED
S319000041788A18D25C1409447025000C2D25DA1B4A8A18012304
S3190000418C067A002E03D01688E6401E421BD0062465434C1952
S319000041A0E47864080125254045710024C4710479FF2C19D012
S319000041B4B24D0C19645D2509C5702C000C2C06DA067A002EB7
S319000041C805D01288EA401A4201D1002070BD062254430919E8
S319000041DCC978490801220A408271C371012070BD00FDFF1F3A
S319000041F048170020E4050000F2B590B01600FD2700256C4655
S3190000420480286CD1002939D0012962D0032902D004290FD023
S319000042182FE138206843994908184C21415C39404C30017007
S3190000422C6D1C302DF3DB31008020A2E09148934949190A1838
S3190000424010780109914B1B88CB40DB0714D50207920E0309C8
S319000042546C2463438B4CE3189A1880320007800E6C23594324
S3190000426861180818803000680121B140884310606D1C602D27
S3190000427CCCDADBE76022FF21824800F063FD82480078C109F8
S3190000429003A802F02BFE302603A88019401E0078207001202D
S319000042A420726846FFF754FF00280FD0A078B749EDB2744AFB
S319000042B8521950546D1CE079002805D02079EDB26F4A5219A2
S319000042CC50546D1C761E05D0E0E7C0220021AE4800F038FD5D
S319000042E0CBE010A909780200813A0D2A03D20329F6D13100F2
S319000042F443E0207001202072032900D125726846FFF726FFED
S319000043080028E9D010A80078801E0928E4D802A1095C4900AE
S3190000431C8F4400BF0519AD32424778862AA0A078400099496D
S3190000433009180120B0400A8802430A80E179002906D02179ED
S319000043444900934A51180A881043088093E020783821484374
S319000043584A4908184930C1780F40C7703100A078FFF7C6FE5D
S3190000436CE079002803D182E0E0790028FBD031002079FFF774
S31900004380BBFE7AE02078382148433E4908184930C1780F40EC
S31900004394C7703100A078FFF7B7FEE07900286AD0310020795F
S319000043A8FFF7B0FE65E0207838214843334908184930017808
S319000043BCBF220A40B101402319401143017073482C49A2783F
S319000043D02D4B9A18515C0907090F6278D20082185654E1798A
S319000043E4002948D0217838225143254A511849310978890695
S319000043F83FD5214922799A18515C0907090FE278D200801847
S3190000440C465434E03200A178607800F03BFAE07900282CD023
S3190000442032002179E07800F033FA26E032001448A178154B34
S319000044345918085C0107090F6078FFF76FFEE079002818D0D5
S3190000444832000D4821790E4B5918085C0107090FE078FFF79D
S3190000445C61FE0CE03200A1786078FFF76BFEE079002804D024
S3190000447032002179E078FFF763FE11B0F0BD00006C050000D8
S3190000448458F2FF1F481700202E1D0020BC200020E9FEFF1FCB
S31900004498FEB5030000240020B64DB74E5F00FF18EF19BE19B3
S319000044AC00966C265E43AE1950360196B24EAE19029637882B
S319000044C001229A403A4006277B43EB180C295CD801A77F5C91
S319000044D4BF4400BF0E16222E4A52566472808AA2AA00002A50
S319000044E84FD018884DE0002A4BD098788007800F47E0002A12
S319000044FC45D098788006000F41E0002A3FD0019841889E484A
S319000045104843BB30BB21490000F003FA9B49401A33E0AB20ED
S31900004524C000295A1FE0707A2DE0002A2BD0009880780099F6
S319000045388C7026E0002A24D00098007800990C701FE0002AFB
S3190000454C1DD00098407800994C7018E0002A16D00198018899
S3190000456003E0002A11D001988188C8204843AA30FF215631BD
S3190000457400F0D5F907E0002A05D0D97801E0D878410801209D
S31900004588084000B2FEBD000074090000DC040020BC03002008
S3190000459CF2B584B0070001AC27700125257200266846007CD2
S319000045B0092800D1267201A8FFF7CCFD00285DD038204743B8
S319000045C4C548C019483000900F216B4AC34B6846007C0928A1
S319000045D800D9CBE001A73F5C7F00BF44043A5D5F6872B9B142
S319000045ECB9A5A078BC4B1018C3181B780F20184040001B09B7
S319000046006C267343D31818186E300388E07900281BD0267909
S31900004614B3489419261830780140490000096C246043101810
S3190000462840186E300088009949784909294203D01818C3031A
S3190000463C1B0C04E000990978C90900D10300C8205843AA303C
S31900004650FF21563100F065F920E0A078A14B1018C3181878C4
S319000046640F2303405B0000096C2568431018C0185E30008811
S31900004678E379002B7BD02679984B9419E618337819404900DC
S3190000468C1B096C246343D21851185E310988401880B26AE073
S319000046A0012068E060786C2148431018B13000784008054099
S319000046B43AE0E07900285CD0009840788106C90F01204840CD
S319000046C855E0A078854B1018C31860786C26704310181E78DD
S319000046DC0E408619A9363678002E01D0012006E04A3006883C
S319000046F001201B780B4098403040E379002B3AD02679784B76
S319000047049619F618E3786C246343D21833780B40D318A933A6
S319000047181B78002B05D14A321288337819408D40154005436F
S3190000472C280022E061780120884080B2E17900291BD0E1788E
S319000047408D400543A8B216E0E079002807D1A078185C010212
S31900004754872007E0E079002806D0A078185C00022179595C89
S31900004768084304E0A078185C000200E0002005B0F0BD000018
S3190000477C48170020E1090000E4050000521C0000D20A000087
S31900004790FEB56C462070012020726846FFF7DAFC002874D081
S319000047A450484F49A2788218525C0F210F2313409B001209FE
S319000047B86C256A438218D218803217680022E379002B37D044
S319000047CC454B25794519EB181D780F262E40B600B4462E0925
S319000047E06C256E4385196646AD1980352D683D432F001D78DF
S319000047F40F232B409B002D096C2675434519EB1880331A7055
S31900004808364B25794519ED5C0F232B409B002D09754345194C
S3190000481CEB1881331A70304B25794519ED5C0F232B409B0049
S319000048302D0975434519EB1882331A70294BA5784519ED5CA8
S319000048440F232B409B002D096C2675434519EB1880331A7004
S31900004858224BA5784519ED5C0F232B409B002D097543451991
S3190000486CEB1881331A701C4BA4780419E35C194089001B090C
S319000048806C246343C0184018823002703800FEBD80B500026A
S3190000489408430005000D110301436846018069460F2000F058
S319000048A881FC01BD0F494A88002801D082430A808A80704788
S319000048BC010000200A4A002903D0022905D002D3704750880D
S319000048D070471088704790887047000058F2FF1F7C040020F1
S319000048E46C050000481700202C1D0020F446002804D449429C
S319000048F800F013F8404260474042002905D45FD000F00BF8DC
S3190000490C404249426047494200F005F84942604703460B439C
S31900004920E6D40022030A8B420BD203098B4219D243088B420E
S319000049342ED2411A00D20146524110467047FF2209023FD01A
S3190000494812068B4205D3121209028B4201D31212090203098D
S3190000495C8B4219D300E0090AC3098B4201D3CB01C01A5241EF
S3190000497083098B4201D38B01C01A524143098B4201D34B01CE
S31900004984C01A524103098B4201D30B01C01A5241C3088B42EE
S3190000499801D3CB00C01A524183088B4201D38B00C01A5241D5
S319000049AC43088B4201D34B00C01A5241884200D3401A5241C3
S319000049C0CFD201461046704708B502F013FD08BD10B5974CBC
S319000049D42C21200002F0ECFB9548A06200F044F9002801D17D
S319000049E800F034F810BD70B5050000260020040031002800FF
S319000049FC00F058F90100700081402143C8B2761C032EF2DBC0
S31900004A1070BD58B5002400F029F9002801D1012052BD00F002
S31900004A247CF9FA218900884201DB022052BD00263100200011
S31900004A3800F03AF9032808D0761CF6B2032EF5DB641CE4B2ED
S31900004A4C0C2CF0DB002052BD80B5002802D000F060F9401C4A
S31900004A6080B200F03BF901BDF8B504006C20604371490D1869
S31900004A745035FF2656362988C8204843AA303100FFF74DFF81
S31900004A8887B2A988C8204843AA303100FFF745FF80B28742F7
S31900004A9C25DB3D1AADB266488188A94201DA0220F2BD418833
S31900004AB0A94201DA0120F2BD0088A84213DB0021200000F0C5
S31900004AC4F5F801280BD00121200000F0EFF8012805D00221AD
S31900004AD8200000F0E9F8012803D1152D01DB0020F2BD0320C6
S31900004AECF2BD38B500250024280000F019F86900884020430E
S31900004B0004006D1C0C2DF5DB4948846200F001F831BD474828
S31900004B140178002907D14178042902DA491C4170704701215C
S31900004B280170704770B582B004000320694608704148008895
S31900004B3C0121A140084226D02000FFF78FFF060000256000ED
S31900004B50001937490818401981784900AE4203D101220A43C3
S31900004B64827000E08170807800F014F800280BD06846067059
S31900004B783100200000F098F8002803D13100200000F084F899
S31900004B8C6D1C032DDDDB6846007876BD10B5002100224006F7
S31900004BA0400E03000B41DC07E40F1219D2B2491C0729F6DB73
S31900004BB4042A01DA002010BD012010BDFEB500241A4F6D4610
S31900004BC8382060431D490E1844363078142826DBF079F7216C
S31900004BDC0140F171012019490978490801421CD02C70287262
S31900004BF06846FFF7AFFA002815D0B96A03206A7852000B00CC
S31900004C04D3400340032B08D1EA79002A09D0EA785200D1400E
S31900004C180840032803D0F07908210143F171641C302CCDDB80
S31900004C2CF7BD0000F0080020FFFFFF0048170020F01800001E
S31900004C402C1D002058F2FF1FE9FEFF1F08B4024B9C4608BCD5
S31900004C546047C04627F0FF1F08B4024B9C4608BC6047C04608
S31900004C68BDF0FF1F10B52E4C1422216831A002F0BEFB0006E7
S31900004C7C05D1606800680021C943884201D1002010BD012041
S31900004C9010BD000080B58A0025A189580C235843214B1B681E
S31900004CA4181880181830FFF7D7FF01BD89000C2250431C4AAC
S31900004CB812681018401880691BA25158884201D10120704725
S31900004CCC0021C943884201D10020704703207047F1B5134853
S31900004CE0FFF7B4FF104E3468002500BF13A707E0EDB2A8004B
S31900004CF439582000FFF7B0FF6D1C241D3068010014318C42DA
S31900004D08F2D3694609881430FFF7A4FF01217068FFF7A0FF20
S31900004D1CF1BD02480068406980B2704744F2FF1F00900100A6
S31900004D30110000002200000033000000564F505F5F5F534559
S31900004D4443544F525F5F5F56414C494410B5040010000A00AD
S31900004D580100200002F0FAF9200010BD124207D08B0706D0BB
S31900004D6C0B78491C0370401C521EF7D87047830706D00B789D
S31900004D80491C0370401C521EF9D1704770B4103A03D378C96F
S31900004D94103A78C0FBD2530701D318C918C001D508C908C060
S31900004DA8D20704D30B880380891C801C002A01D50B780370F4
S31900004DBC70BC704780B52C480168802212050A4302602A480E
S31900004DD00021016064228260C160012101620721416200F07E
S31900004DE401F801BDF0B523488021426A0A43426202680A40FC
S31900004DF8FCD0416A490620D4C76C866C426C036CC46B856B86
S31900004E0C80210902BE19B218D218121952191204520C0A43FE
S31900004E20C262C76E866E426E036EC46D856DBE19B218D2185C
S31900004E34121952191204520C11430163F0BD0E4801781022F4
S31900004E480A430270F0BD1F2801DB0020704708490A681F23E5
S31900004E5C9A430A600A681043086008680006FCD5086980B2DE
S31900004E70704700003C80044000B00340EC26002070B500F037
S31900004E84B0F800F0B4F85F48007840070CD500245D4E5E4D0F
S31900004E980020295E200000F021F861007052641C102CF5DB81
S31900004EAC70BD80B5202258495548FFF755FF01BDF0B55349C1
S31900004EC0554A127852008A1813880024534D2601AE5B6700C5
S31900004ED4CE53641C102CF8DB002800D11380F0BDF0B585B001
S31900004EE80C004C4900010D18F32040000F1801263878800810
S31900004EFC304201D1288837E0102229006846FFF72BFF297BC4
S31900004F100A2041433878C708A1421EDA601AEA8950436A7B1A
S31900004F240A235343591AFFF7FAFC01B26846C08981420CDAFE
S31900004F3868464089401A6946488137420FD0098880B2884231
S31900004F4C09D2084607E000206946488105E0374203D06846C4
S31900004F604089694608806846408969460988884200D3084695
S31900004F7405B0F0BD284AF3235B00D35C5B0706D50001101849
S31900004F88027B0A235A43914201DA01207047427B0A205043C8
S31900004F9C814201DA02207047C830814201DA032070470420F0
S31900004FB0704780B51720FFF74AFF8008B2218900884209DBF3
S31900004FC42821484380B21B21FFF7A6FC96218900401A04E07B
S31900004FD80101081A0004000DE13800B202BD80B5FFF7E3FFF3
S31900004FEC0849888001BD07480421415E0222825E084B9A424E
S3190000500000D0110001807047E6FEFF1F180800201008002003
S319000050143808002058F2FF1F00FDFF1FFF7F0000F1B586B045
S31900005028002596480078082801D1012400E00024A74E96201D
S3190000503C0001301803909148301802906846007E01900128E5
S319000050504FD0A24A00213000FFF77AFE0622002104A8FFF791
S3190000506475FE9E49711800919D49009A516104AF0199032913
S3190000507819D0042917D0002C15D0020001216846007E02F0CE
S3190000508CD7F9388895490988884207D17888002802D1B8882E
S319000050A000280AD0062000E00A207649087004AA0021684610
S319000050B4007E02F0C1F9388800990880009800880099488056
S319000050C800998880002C02D10C2002F0FFFA9D483318642261
S319000050DC0821029802F008FC9A48331805220821039802F0F7
S319000050F001FC029802F017FC039802F014FC012000F028F83C
S319000051040C22FF219248FFF721FEA82200219148FFF71CFE80
S31900005118602200218F48FFF717FE8F490D808F490D702022FC
S3190000512C00218E48FFF70EFE8D490D708D490D708D4845812F
S319000051400020C043BA49086002209E210901705407B0F0BDB4
S3190000515438B504007E4D6022002128006C30FFF7F5FD6022B4
S319000051680021CC352800FFF7EFFD594D0A220021AE482818D8
S3190000517CFFF7E8FDAC482818FF210170817003220379134094
S3190000519003714171C171417A0A404272002C04D06022002151
S319000051A4A448FFF7D3FD31BD7CB502000B0069460A70484C56
S319000051B80F20132A19D801A5AD5CAF44141412363E46145284
S319000051CC14525866702C7E86A0142EB0019369462A48201886
S319000051E002F0B1FB002804D19448817802220A43827073BDB2
S319000051F4187800F0BCFA73BD180002F02CFC73BD180002F0CF
S319000052082FFC73BD1D88290AE8B202F031FC73BD18888880C8
S3190000521CDDE718221900AC48201802F03DFDD6E70020C04329
S319000052307F49086073BDA84820180278102515430570E9E790
S319000052440C221900A448EBE71D8801232A0BA349EEB2A41904
S31900005258615C01402C0A204002F026FD73BD1B78DA0959068E
S3190000526C490F184002F00EFE73BD9A785978187800F040FAAD
S3190000528073BD0000FCFCFF1F4C0900001CB56A461070114A1D
S31900005294904BD318002803D0022807D003D30AE01878FD24CD
S319000052A804E01878FB2401E01878F72404401C7001916946BC
S319000052BC96200001101802F040FB002804D15C48817804220C
S319000052D00A43827013BD000048170020080A0000E40500003B
S319000052E41C040020C6260020F4B506000C0002F014FF07009D
S319000052F8AE4D3100AE4802F04EFB002819D1E8680521018036
S3190000530C083002F08BFF55216854685C002804D10221103578
S31900005320280002F08DFF0099380002F004FF0028E3D04248A2
S319000053348178082205E03078844204D03E48817810220A4317
S319000053488270F1BD0406000024090000B00300209C050020E0
S3190000535CBC030020EE090020EC090020200900201C0900209E
S319000053701D09002058F2FF1F1CB5904C69469048201802F017
S319000053840CFB69468888534AA418097800290ED0012918D056
S31900005398022922D0062935D0072936D0092939D00C293AD0FA
S319000053AC112925D013BD02F005FF002002F0BAFF207802216C
S319000053C00143217003F048F913BD02F0F9FE002002F0AEFF52
S319000053D4207804210143217003F078FC13BD02F0EDFE0020F9
S319000053E802F0A2FF2078082101432170019803F09FFE13BD89
S319000053FC02F0E0FE002002F095FF02F062FD13BD03F038FED7
S3190000541013BD010AC0B203F043FE13BDB549088013BD00F0EB
S31900005424DDF82078EF210140217013BDE8090020EE0500004B
S31900005438B0070020EC260020F8B50123012100205C4A6C2705
S3190000544C8410640F2418E410E5B2A84E755DE400061B012486
S31900005460B44025422CD01E4C15182D192C782409A24E965B4C
S31900005474E6401E4222D02D782E07360F7C4314194A34248871
S31900005488F4401C4218D174002D096C26754355192C196E3446
S3190000549C2488BA4DAC420DD3B94909180C78641C0C70E4B23C
S319000054B0022C04D10D2102F0DFFA0220F2BD0021401CC0B226
S319000054C46028C1DB002901D00020F2BD0120F2BDCC05000040
S319000054D8050A0000D40900006C050000F8B50400012501265F
S319000054EC6B4601229C2104F071F968460088022847D06B468F
S3190000550001229C21200004F067F96846008802283DD06B461F
S3190000551401229E21200004F05DF90426264F68460088062135
S319000055286143795A88421DD16B4601229D21200004F04EF94D
S3190000553C68460088002813D092486100091979180818694657
S319000055500988314205D04178FF2907D0491C417004E001783D
S31900005564FF2901D0491C0170634839180A880120A04082430A
S319000055780A808648006881780E438670844881780D4385700F
S3190000558C00263000F2BD38B5050000240120A040054204D0CE
S319000055A07E4AA821200004F003F9641C0C2CF3DB31BD0000DC
S319000055B480060020A8200020481700204C09000038B504008A
S319000055C800250120A840044202D0280002F07EF86D1C0C2D31
S319000055DCF5DB31BDE0B582B0060000256D4F0120A840B1B2DD
S319000055F001421AD002229C21280004F0D9F86B4601229C2115
S31900005604280004F0E7F8B8880121A940084203D10320694656
S31900005618088003E068460088022802D00120A84086436D1C80
S3190000562C0C2DDCDBF88800280DD0FFF7C5FFF88839880143B0
S319000056403980397A002901D100F00BF80020F880E3BDB6B256
S31900005654002E03D03000FFF79AFFFE80E3BD7CB50400002504
S31900005668B64E002C06E0401CC0B20C2806DB6D1CEDB264089B
S3190000567C0ED0E007F9D500209C2189003218515C8D42EED196
S31900005690C100C9B2280001F088FFECE773BD80B501F0BEFE3F
S319000056A48020A849086001BD80B500210C2002F0C9F901BD41
S319000056B880B501000A000E48802A04D10C22FF21FFF742FB42
S319000056CC01BD0B00813B0D2B04D2FF2180188138017001BD91
S319000056E0D2088018027801234907490F8B401343037001BDA6
S319000056F4EE090020B0030020E4050000F0B583B005000F00DD
S319000057081600904890494919085C0007000F01908408322075
S3190000571C444308346B460122E1B2380004F056F801986C21A9
S319000057307943874A51180818A1300121AB079B0F0C33012298
S319000057449A40002E05D06B461B881A436B461A8005E06946DE
S31900005758098891436A4611800021017068460288E1B23800FC
S3190000576C04F020F8F7BDC108774A51180A7801234007400F34
S3190000578083409A430A70704789020000B0070020E1090000F2
S319000057944CF2FF1FEC260020CDAB00002C1D0020FEB56C4F1E
S319000057A8F868083002F03CFD55217854785C002800D1C2E073
S319000057BC02210C2002F042F902F0D0FB644800906448019021
S319000057D0012402F0A4FC0290624800780121014360480170D5
S319000057E40098007A072801DA092500E00F2502F0F1FC060068
S319000057F8742002F0F3FE854201D3002E5ED1002000990872F5
S3190000580C0099C860009908610025019800880121A940084224
S319000058201BD051480078C008204209D0F8680480083002F061
S31900005834F9FC55217854785C00287BD02800FFF74FFE002849
S3190000584807D00098007A401C00990872280004F009F86D1C48
S3190000585CEDB20C2DD9DB0098C0684000009948600098017A52
S31900005870002909D000690A225043FFF752F8401D0A21FFF736
S319000058844EF800E00F200099088004F0DFF9002809D002F0D5
S3190000589842FC3449096802F041FC0628F7D304F033FA314809
S319000058AC00780199497A884201D104F01FFB04F011FC01E081
S319000058C0FFF75AFD2B4802F03CF80028F8D12A4800780128E4
S319000058D411D10198007F04F02FFC0198007F001D0199087753
S319000058E8C0B2102805D100200199087702202049087002F0F8
S319000058FC10FC029902F010FC0100F868142909D304800830B7
S3190000591002F08AFC55217854785C00280AD10BE01422511A60
S319000059240180083002F07EFC55217854785C002800D04CE703
S3190000593802211037380002F07FFCF7BD00FDFF1F84F00F40B4
S3190000594C6C05000048170020B003002080060020A01C0020FC
S319000059602C1D0020F00900204D210020E409002058F2FF1FA8
S3190000597494200020FC09002010B502000023002003E0D45C03
S31900005988001980B25B1CDBB28B42F8D310BD38B505000C0053
S3190000599CFFF7EEFF29190A786B465A706A464978117069462E
S319000059B00988814201D0002032BD012032BD38B505000C009B
S319000059C4FFF7DAFF694608802819497801706946097841706F
S319000059D831BD0000002901D0042901DB0948704790225200B8
S319000059EC8000084B181880180288074B134089000C220A40D6
S31900005A001A43028000200449087070470480000000FDFF1F72
S31900005A14F3FF0000FDFCFF1F80B50178052902D0072904D0BD
S31900005A2807E0401C00F008F802BD401C00F038FA02BD012014
S31900005A3C02BD0000F0B587B0050068780390A87804900398EE
S31900005A50802805D0302801DBAD48AFE0C7B200E00027AC4992
S31900005A6490204000BA008A18101838227A43A94B9A18009265
S31900005A7816462636FF22E632891801242A78022A00D1C1E01D
S31900005A8C0A2A00D1F0E00B2A00D1E0E00C2A00D1A7E03A2A73
S31900005AA000D1EFE0432A00D10CE14A2A00D187E0512A00D129
S31900005AB4ECE0A22A00D1C4E0A62A05D0A92A00D1B4E1AA2A19
S31900005AC800D0AC2A00D119E1AD2A00D1BFE0AE2A00D1B2E0D1
S31900005ADCAF2A00D0D2E1E979032903DB4E2901D08B4865E088
S31900005AF0297A6A4611726946097A05914E292DD00F21059ABB
S31900005B040A40042A1BDA028813059B0F059C21408B4214D01B
S31900005B18814911406A46127A9202C0231B0113400B43038065
S31900005B2CB17F202907DA00994931497804220A4300994931AB
S31900005B404A70297A0909052908DA0288754B13400903E02221
S31900005B54D2010A401A430280E9794E2908D00288704B1340F2
S31900005B680902C02292000A401A430280E87801A94870287918
S31900005B7C69460871022268468188380000F060FC697938006E
S31900005B90FFF724FFA979380000F032FD0400A978380000F01C
S31900005BA4CAFC20432CD17F1CFFB2302F03DA0398802800D125
S31900005BB853E7002007B0F0BDE87801A948702879694608718A
S31900005BCC002268468188380000F03AFC69793800FFF7FEFE7C
S31900005BE0A978380000F0A9FC00280BD1DDE7E978380000F06C
S31900005BF405FD0400A978380000F09DFC2043D2D0052203215F
S31900005C083800FEF7F5FACCE701889E4A0A4004990C40A1016D
S31900005C1C11430180052203213800FEF7E7FA009849300078B7
S31900005C30FE210140009849300170002094490870B3E7032244
S31900005C4400E00122B07F2028B5DA307C032803D1B1E70222D6
S31900005C5800E00022A87801A94870E87869460871684681886F
S31900005C6C380000F0EDFB9AE70499C9B23800FFF7AFFE002872
S31900005C809CD192E7002030757075B075B0748CE700994931AB
S31900005C940978049AD2070BD58A09224283D101220A430099CA
S31900005CA849310A7001880C4304807AE7C1200142FBD0FE2024
S31900005CBC084000994931BCE70398802801D1724876E74878E4
S31900005CD00009204201D1FF20E870A878602802DBFF2806D183
S31900005CE402E0E978602904DBE978FF2901D0694862E779002E
S31900005CF8684A51180870E878487052E70878810921420FD161
S31900005D0C644855E70880000000FDFF1F58F2FF1F0680000004
S31900005D20FFF30000FF8F0000FFFC0000C00907D0049881072A
S31900005D34890F3800FFF750FE0028E6D12878A62801D134707E
S31900005D4801E002203070707B800719D1009849300078400772
S31900005D5C800F03D002280BD005D30FE0707B032101437173C8
S31900005D700AE0707BFC210140012003E0707BFC210140022077
S31900005D8408437073717BF3200840AA78530601D5910903E0C2
S31900005D988907890F022901D0890000E0042101437173287877
S31900005DACAC2801D1002003E0E879652800DB64203073EA1C3E
S31900005DC03900287800F052FC2878AC2821D1A87804210140C6
S31900005DD46A461172082108406946487200200021737BEF2268
S31900005DE81A400901114371736946497A002901D000213170D7
S31900005DFC002801D0032030706846007A002801D025480470CF
S31900005E10CBE62A7A012111406B461972022111405972A62867
S31900005E24DCD15007C00F1107C90FD9E700984930C078FE2179
S31900005E380140A878012202400A4300984930C270FD20B17FAD
S31900005E4C03290BD100994931C9780840E9780C406100014346
S31900005E6000984930C170A0E6B17F0429FBD1E978C907F8D43A
S31900005E7400994931C978084000994931C87012220A21BFE629
S31900005E88802097E6BFFF0000FDFCFF1F0A80000009800000FB
S31900005E9CF00600200C800000F8090020F0B587B00600002423
S31900005EB0AB480290AB480190AB49AC480390F82207270125E6
S31900005EC40F203378052B00D1D6E0092B00D14DE10B2B00D1F9
S31900005ED8CBE02B2B00D195E03D2B00D10CE1432B00D10DE116
S31900005EEC552B00D1F5E0562B2BD0632B20D0872B0CD0A12B22
S31900005F0000D13FE1BA2B00D14CE1BB2B00D186E0C52B00D1D5
S31900005F147AE195E170780C2801DBB74892E1F2780A2151430F
S31900005F28029A12888A4259D3B34A4000B34B1818815284E18E
S31900005F3C70786A465070B07810706846008888807BE17178C8
S31900005F50162913D0282906D02E2926D0322937D0502917D0DF
S31900005F643AE0B178052906DA0198007A02400F40174301983B
S31900005F78077264E1B1780629FBDA019A1279F0231340084050
S31900005F8C18430199087158E1B1780629FBDA0198807A024052
S31900005FA00F401743019887724DE1B078002806D1A6480570F4
S31900005FB401984079BF21014005E0FDF7C5FB01984079402114
S31900005FC80143019841713AE1B078002802D10120FEF770FF6D
S31900005FDC7178C8080C2801D39A482FE10F40BD40F570F02136
S31900005FF04900844A101840180178B278002A02D00D4305709C
S319000060041FE1A94301701CE10198007802407078074017434C
S319000060180198077013E1B07869464870F078087070780428E7
S3190000602C09DB082070700298808A0988884210D26946088056
S319000060400DE00299498A6A461288914201D26A461180002892
S3190000605403D168460088039988818320400071784900674ABD
S3190000606851186A4612880A52E9E0701C00F004F90400E4E005
S3190000607C7078FF281ED0B278FF2A1BD064220A230A2801DA0F
S31900006090737002E0652800DB7270B0780A2801DAB37002E0AD
S319000060A4652800DBB270B0787278824202D30A70B07801E02A
S319000060B8087070784870C2E0F0780028FBD03279002AF8D01C
S319000060CC904202D38A70F07801E088703079C870B3E070787C
S319000060E000280BD1B078552808D1F078002805D13079552898
S319000060F402D1002000F095F9554CA2E07078554908709EE082
S31900006108544F5548385CC008284201D0534C96E0534E3000C0
S3190000611C00F0D4F9002800D18CE060223100504801F0BAFD54
S319000061304F4E612175540198807AC008284206D00C224C490F
S319000061444C4801F0ADFD042004E04B48385C002877D105204E
S319000061586136307073E000BFCA170000E0FEFF1F66FFFF1F84
S3190000616C02FEFF1F7078C11E3A2963D2FA21890041430398D9
S31900006180018060E070786A465070B078107068460088C880C6
S31900006194F07850703079107068460088088150E070780028A1
S319000061A81ED057282CD1F0786946487030790870B07800015A
S319000061BC11490818694609880A225143418171790173B17905
S319000061D04173F1796A465170317A1170694609880A225143FA
S319000061E4C1812EE0B07869464870F0780870684600889449CF
S319000061F8488024E0018000004E02000000FDFF1F2C021CE0AB
S3190000620C002104AA5118721913781B090B70127802404A7005
S319000062206900C9B26D1C072DF1DB04A800F069F9002805D0FC
S319000062340C2204A90E4801F033FD02E09A4C00E08024200092
S3190000624807B0F0BDF8090020038000000480000029F2FF1F77
S3190000625C48170020050A0000F0FF0000F0060020EBFEFF1F8E
S3190000627080060020C409002070FFFF1FEC050000F0B585B029
S3190000628400218A4B0278572A3ED05F2A03D0A72A00D1B7E06C
S31900006298C2E04478072C03DB802C01D04E2C3AD18278042A53
S319000062AC05DB802A03D04E2A01D07F4826E0C278052A03DB1E
S319000062C0802A01D04E2A4FD17B4A9A184E2C00D01470837871
S319000062D44E2B12D054789C420FD0537038234B43754CE31864
S319000062E844331C78202C03DA9C79042525439D71491C3029F6
S319000062FCF0DBC0784E2800D09070002005B0F0BD44782200DF
S31900006310103A702A03D3912C03DBFF2C26D06348F2E782787F
S319000063246D466A70C2782A7002AA2D88158005796E467570F1
S31900006338457935706D462D88558085797570C57935706D4632
S3190000634C2D88958025015B190093007AFF280AD1D888D08014
S319000063601088574B984208DB5648CDE7FEF79FFDC9E70A236C
S319000063744343D380F2E70A235843108065009B4840190190D3
S31900006388112C05DB1088FF21C943019A5052B6E79688964844
S3190000639C964B9E420FD1009EB688968056889E4213D100981A
S319000063B04088508090881E305288904210DB8F48A2E75788FF
S319000063C4B74201D2A1489DE74788BE42EAD2A04898E700880C
S319000063D8B042EBD29E4893E79E480170082202A9009801F0E7
S319000063EC5BFC009800880199088014480021415E2000FEF7CD
S3190000640071FD974948537EE74178090159180A7AFC2313400A
S3190000641480788007800F1843087272E78020400070E780B5C6
S31900006428FDF7CAF88D480068817801220A438270BFF34F8F7C
S3190000643C8A48B2490860BFF34F8FFEE71008002030B505007A
S31900006450080014006849884227D0002C01D0012C01D1642123
S3190000646400E01421FEF758FA38216943124A51184431002C57
S3190000647805D0022C03D013D3032C11D030BD91225200AB00A1
S3190000648C084CE31898520878202803DA8879042202438A71B1
S319000064A000206E49087030BD488030BD0180000000FDFF1F55
S319000064B4028000004B02000058F2FF1F71170000038000008C
S319000064C810B598B004006846602100F06FFE30200221227810
S319000064DC602A08DA6B469A181378002B01D0002007E0012325
S319000064F01370641C491EF0D1401EEDD1012018B010BD30B5B0
S319000065040021421813780C2B01DB0F2B0CD1491C0B00157850
S3190000651800E05B1CDBB20C2B06DAC45CA542F8D10F2DF6D09C
S3190000652C002030BDC9B20C29E7DB012030BDF1B581B04E297A
S3190000654001D10020F6BD08090022002590235B006C462479E7
S31900006554A4006D4E3419E31801240F2801D0002819D11F88A0
S31900006568694E3E4001270F4037431F80274200D101256E4640
S3190000657C367938277E43644FBE19009649363778FE263E4046
S31900006590009F49373E700F2801D001280CD11E885D4F37404D
S319000065A4BC464E08760002273E4067463E431E800F2801D094
S319000065B802280BD11E88574D35408E08F701802637402F43E7
S319000065CC1F8001250F2801D0032806D118884004400CC908E5
S319000065E0C903014319801D4802702800F6BD000038080020E6
S319000065F4D0170000FFFF00000780000070B5020000230020B7
S3190000660803291EDA9024640095003E4E75192C1925882E0667
S3190000661C360FB607B60F8E4211D03E482840090130250D4052
S3190000663005432580012038214A433649891849228A5CFE24C9
S31900006644144049310C7004490B7070BD0480000005800000F4
S3190000665806800000FDFCFF1F180800204CF2FF1F0400FA05EC
S3190000666C70B582B00600140038204143264845180A212800A9
S31900006680283000F095FD0020A62E04D0AA2E0DD0AC2E17D0E8
S3190000669473BD207869464870684661780170008828856846E2
S319000066A8008809E0215C8A0051184200AA181185401C0428D5
S319000066BCF6DB288DA88673BD6946225C0A70A1796A465170AE
S319000066D0042801D1617951704210920F121892109200811A2B
S319000066E44906090E6A46527803238B401340CB4069464B7003
S319000066F809884200AA181185401C0528DEDB73BD0CED00E012
S3190000670C00FDFF1FFEFF000058F2FF1FFDFF00007FFF000079
S31900006720CFFF000008B4024B9C4608BC6047C0464DF1FF1FD9
S31900006734F8B5002100240225324F01260278062A1AD0072AC5
S3190000674849D02D2A2CD0412A3FD0FF2A56D100BF38A243180D
S3190000675C5B78555CAB4202D0F0030843F2BD491CC9B20529E5
S31900006770F3D3002000F056F82000F2BD40780F283ED12248B4
S319000067840078C008304212D120480178491C017003F034FD8B
S319000067980028EDD178780421014379700124E7E718480078F4
S319000067ACC008304201D0184CE0E703F063FE03F021FD002810
S319000067C002D015480570D7E77878082101437970D2E74078A6
S319000067D4114A107011480170CCE7407801280DD1FEF79BFA0A
S319000067E8FA218900884203DA0120FEF72FF9BFE77878054330
S319000067FC7D70BBE78024B9E70120F2BDEC2600204D21002020
S31900006810F6090020F0FF0000E106002000FEFF1FFDFCFF1F26
S3190000682410B50400FEF739FF2000FCF7C7FEFFF777FF00F030
S31900006838C2FAFEE7991516169900000080B50178042904D083
S3190000684C072906D0082908D00BE0401C00F00BF802BD401CCE
S3190000686000F028F802BD401C00F054F802BD012002BD1CB547
S3190000687400240178532918D120490988012243799A40114202
S3190000688812D0C1786A465170694602790A7001A96A461288D2
S3190000689C4A8042790A70807848700320FEF780FC00E080241B
S319000068B0200016BD010000200A78C22A1DD14A781202897887
S319000068C40A430F498A4217D101210E4A127852080A4203D1E3
S319000068D80B210C4A117070470B4A53780B4209D11943517088
S319000068EC03211170517802230B4353707047802070470000E0
S319000069002C1D00209B900000E1FEFF1FFCFCFF1FE1060020CF
S3190000691410B582B0002100240278542A0DD16A46118041785D
S319000069280907090F517069468078087068460088FDF7B8FF6C
S3190000693C00E08024200016BD00B585B00F2201006846FEF70B
S3190000695009FA6846AC210170FF2141700D21FFF72EF80F22F2
S319000069646946012000F05AF8002005B000BD000008B4024B6C
S319000069789C4608BC6047C0464DF1FF1F08B4024B9C4608BCA7
S3190000698C6047C0465DF1FF1F38B5B04C1C21200000F00AFC9C
S319000069A000F018FC0F20FEF752FA80093C2101402182084651
S319000069B49625ED01002804D00121E17303F030FE03E0E07357
S319000069C8290003F0A8FE2900012003F0A4FEA34C6022FF2084
S319000069DCEC302118A14801F05FF90C229C2080002118B5487A
S319000069F001F058F931BD80B5FFF7BCFF002000F0F5FB002057
S31900006A0400F043FC00209849087092490873088AC0B203F083
S31900006A1805FEFFF7B3FF01BDF8B506000F0014000125002CD3
S31900006A2C04D1A64841780D434570F1BD8748C07B012801D11C
S31900006A40FFF798FF3900300000F0E2FB01280ED1002E03D16F
S31900006A548048C07B002801D0012E02D1300003F038FF390097
S31900006A68300000F0D6FB7F1C641EA4B2002CE5D17748C07BD4
S31900006A7C012801D1FFF780FF002E0ED17348C07B00280DD088
S31900006A9001280DD1B14800788009284208D00820AF49086021
S31900006AA4F1BD012E02D1012003F013FFF1BD70B5040000F03B
S31900006AB8F2FB0F2803DB200000F07AF870BD00281CD0634854
S31900006ACCA10046180519287B002805D101F021FB3060012034
S31900006AE0287370BDFA214900306801F024FB002808D0FFF7D2
S31900006AF43FFF00202873200000F0C7FBFFF740FF70BDF1B5B5
S31900006B0882B0012700240825514E92480078C00838421DD0A8
S31900006B1C307E002804D03476377701F0FAFA7061307F0028D0
S31900006B3012D08C480188706901F0FDFA00280BD0894800680F
S31900006B44817808220A438270FFF753FF864805603477F7BDFB
S31900006B586846007A00F09FFB0F2804DB6846007A00F026F825
S31900006B6CF7BD002821D06846007A8100711800913618307B86
S31900006B80012805D001F0CBFA009908603773F7BDFA21490084
S31900006B940098006801F0CDFA00280AD0FFF7E8FE34737148F1
S31900006BA805606846007A00F06EFBFFF7E7FEF7BDF0B585B084
S31900006BBC04000026002501202449487601AF6946200000F0B5
S31900006BD081FB6846007878556D1C0F2DF5DB3878002C02D0F9
S31900006BE4012C11D01DE0AB2806D11425012000F008FB281A53
S31900006BF80F282ADB1425002000F001FB281A0F280DDA22E0A0
S31900006C0CAC280AD11425002000F0F7FA281A0F2803DA01200E
S31900006C2000F0E9FA15E0210001A8FCF775F80A48407E002830
S31900006C3407D00F256946200000F042FB6D1E03D0F8E72000E2
S31900006C4800F0D5FA02480019067305B0F0BD000040090020CC
S31900006C5C012044490876704700FDFF1FF0060020FA090020E7
S31900006C7080B54049022003224B781340012B06D13D4B1B78D1
S31900006C849B070ED40B213C4A11703C490A78104308703648EF
S31900006C98C07B012808D10020FFF731FF07E00A704A781043E9
S31900006CAC487001BD0020FFF7FEFE0120FFF7FBFE0220FFF71E
S31900006CC0F8FE01BDC4090020EC26002070B52D4DE8680830C0
S31900006CD401F0A8FA55216854685C0028234C0AD170BD01215C
S31900006CE80180083001F09CFA55216854685C002829D001F04A
S31900006CFC10FA0600FFF7B6FF03F004FE04F042F8A07E401C26
S31900006D10A076C0B20921FDF701FE002903D100F0EBF90020D3
S31900006D24A07601F0FAF9310001F0FAF90100E8680B29D6D219
S31900006D380B22511A0180083001F072FA55216854685C002875
S31900006D4CD5D102211035280001F074FA00BF0000E3FEFF1FDA
S31900006D6088F00F4002FEFF1F4CF2FF1F84F00F4040090020AC
S31900006D74E1060020E1FEFF1FFCFCFF1FF0090020800600202C
S31900006D8880B582484178491CC9B20B2906D102781207120F9A
S31900006D9C0F2A01D100210170417040780B2801DA00F008FAD7
S31900006DB001BD0020774A507077490860704780B576487549DA
S31900006DC4086000F0FBF9BFF34F8F744874490860BFF34F8F68
S31900006DD8FEE773480068002800D1704780B5C06A0078704959
S31900006DEC0978884201D000F001F801BDB0B588B0002502A85E
S31900006E0035A11022FDF7C2FF01A800BF36A10A680260002484
S31900006E1402A80321417163490968C96A0978817161490978F6
S31900006E28C1710021425CAD18ADB2491C0D29F9D3290A4173ED
S31900006E3C857301AF00F0BEF90F2202A90020FFF7E9FD01F024
S31900006E5066F90500A748C07B002818D000F0B0F9002000F0E1
S31900006E64D0F90028F8D1694600F02AFA0028F3D16846007885
S31900006E78395D884201D00024ECE7641CE4B2042CE8DB19E0D6
S31900006E8C0024FA218900280001F04FF90028D1D100F0B3F95D
S31900006EA00028F4D1694600F00DFA0028EFD168460078395DA1
