S0  Power Over Ethernet 
S0  Product Number: 29 
S0  Software Number: 0355 
S0  Param Number:  00 
S0  Build:  003 
S0  File Name - 29035500_1300_003.s19 
S0  Based On File - SAMD21_2021_06_08_17_14.elf 
S0  Time 17:11:22  Date Jun 08 2021 
S0  /************************************************************************************************/
S0  /*                                                                                              */
S0  /*                                                                                              */
S0  /*                                                                                              */
S0  /*                                                                                              */
S0  /*                                                                                              */
S0  /*                                                                                              */
S0  /*                                                                                              */
S0  /*                                                                                              */
S0  /*                                                                                              */
S0  /*                                                                                              */
S0  /************************************************************************************************/
S02C000050443639323030202020202020202020202020203033353532393033353530305F313330305F30303324
S319000014002833002081F0000095ED00009DED000000000000DA
S319000014140000000000000000000000000000000000000000BE
S3190000142800000000A5ED00000000000000000000ADED00007E
S3190000143C695C0000B5ED0000BDED0000C5ED0000CDED000019
S31900001450D5ED0000DDED0000E5ED0000EDED0000F5ED000068
S31900001464FDED00009BBC00009BBC0000FFBA000005EE00002A
S319000014780DEE000015EE00001DEE000025EE00002DEE000023
S3190000148C35EE00003DEE000045EE00004DEE000055EE000047
S319000014A05DEE000065EE00006DEE000075EE00007DEE00006B
S319000014B485EE0000FAFAFAFAFAFAFAFA947F60FCFAFAFAFA84
S319000014C834010000C814000027150000C014000000140000D5
S319000014DCFBF30000FCF30000330400002833002081F00000F6
S319000014F03CEF00005AEF000000000000FAFAFAFAFAFAFAFA9E
S31900001504FAFAFAFAFAFAFAFAFAFAFAFAFAFAFAFAFAFAFAFA45
S31900001518FAFAFAFAFAFAFAFAFAFAFAFAFAFAFAFAC80300311D
S3190000152C333A35353A3031000000000000004A756E20323381
S31900001540203230323100000000000000204E4902E001204EA4
S31900001554204E4902E001204E204E4902E001204E204E4902B4
S31900001568E001204E204E4902E001204E204E4902E001204E0A
S3190000157C204E4902E001204E204E4902E001204E204E49028C
S31900001590E001204E204E4902E001204E204E4902E001204EE2
S319000015A4204E4902E001204E204E4902E001204E204E490264
S319000015B8E001204E204E4902E001204E204E4902E001204EBA
S319000015CCFF0010270A000000000000000000000000000000C5
S319000015E00001000000000000010300000101030000010103E2
S319000015F40000010103000001010300000101030000010103C9
S319000016080000010103000001010300000101030000010103B4
S3190000161C0000010103000001010300000101030000010103A0
S3190000163000000101030000010103000001010300000101038C
S31900001644000001010300000101030000010103000001010378
S31900001658000001010300000101030000010103000001010364
S3190000166C000001010300000101030000010103000001010350
S3190000168000000101030000010103000001010300000101033C
S31900001694000001010300000101030000010103000001010328
S319000016A8000001010300000101030000010103000001010314
S319000016BC000001010300000101030000010103000001010300
S319000016D00000010103000001010010880018010000800200C6
S319000016E40000080109020A030B040C050D060E070F1018113B
S319000016F819121A131B141C151D161E171F20282129222A2398
S3190000170C2B242C252D262E272F30383139323A333B343C35FB
S319000017203D363E373F40484149424A434B444C454D464E475F
S319000017344F50585159525A535B545C555D565E575F004C0484
S319000017484C044C044C044C044C044C044C044C044C044C0467
S3190000175C4C04555220220000000000004100DC054902A40128
S3190000177014056301031D0000B6030F06640098039600280037
S31900001784460096002C01C2015802EE028403000000000000AE
S3190000179800000000000084035802C2012C01960005050505BC
S319000017AC0508080F0F00000000000019191F502532464B0067
S319000017C0000000001E000E000C0188130B001C000E000A01FB
S319000017D4A00F0B001E000E000A0188130B001B000E00080132
S319000017E888130B001E000E00090188130B001C000E00090131
S319000017FCAC0D0B001E000E000C0188130B001E000E000B01F8
S3190000181088130B005DA196B9D7F8F8FC5DA197B9D8F9F9FDF3
S319000018245DA298BAD9FAFAFE5EA398BBDAFBFBFF5EA398BB17
S31900001838DAFBFBFF5DA298BAD9FAFAFE5DA196B9D7F8F8FC9B
S3190000184C5DA197B9D8F9F9FD0300DC057805FF00FFFFFF0010
S31900001860FFFFFF00FFFFFF00FFFFFF00FFFFFF00FFFFFF007D
S31900001874FFFFFF00FFFFFF00FFFFFF00FFFFFF00FFFFFF0069
S31900001888FFFFFF00FFFFFF00FFFFFF00FFFFFF00FFFF3940DB
S3190000189C00010300780020062A06280629060A0112050801D8
S319000018B00F01143C640F00FF01FF02FF03FF04FF05FF06FF3D
S319000018C407FF0000000000001400000000C2EB0B0000BC027A
S319000018D8F401F4015E015802204E88138813C8AF1027401FA2
S319000018ECC201000070B582B00024994DEC602C82AC74002183
S319000019000C2000F0B3FF012000F053FF00F024F801F036F970
S31900001914287D00281DD06E4610203070972070708E48007896
S3190000192800070CD58D480088FF2156314143C82040000818ED
S3190000193CC821890001F0A1FB00E0AB20000270806946152011
S3190000195000F08CFF2C7573BD3EB50024824D6846047001F038
S31900001964FBFB00280ED0382060432818E43000781D2802DA85
S319000019780022072101E000220821200001F04CFC641C302CAA
S3190000198CE7DB37BD80B56E2002F0D6F801BDF0B538224243C6
S319000019A0714B9A181300D8330C24DC73DC741C741C755C74E1
S319000019B45C75DC7DCF252540DD75FC249D7B25409D739D7C7E
S319000019C82C409C7400241D78102D00DB1C835C83F024DD7DCC
S319000019DC2540DD759D7FFE262E409E775D7FBE262E405E7774
S319000019F09D7FF3262E409E77FF321578E0262E4016709E7D52
S31900001A040F250F273740012F01D1002901D034409C759C7D4D
S31900001A182609012E01D1002901D025409D7583001818AA4B6B
S31900001A2C1818A0300078000940011070F0BDF0B585B00127AF
S31900001A4001AE377200F05FF8694648700024684640780121DA
S31900001A5401406846017034703820604341490D18E435684603
S31900001A680078002800D0642028742878001F39D0083839D0C3
S31900001A7C143814283CD80021E0B2FFF788FF684640780028F6
S31900001A9034D101A801F062FB00282FD0F079032812D126205C
S31900001AA428742878212827D102202874A00000198749081844
S31900001AB89C3000780007000F04281BD10A2018E0252028749F
S31900001ACC2878212814D12F74A00000197E4908189C300078AB
S31900001AE00007000F042809D1092006E0462004E06846007851
S31900001AF4002801D15C202874641C302CABDB05B0F0BD18B535
S31900001B080020694608701649382242438A18E4321278042ACE
S31900001B1C04D16A466B461B78012407E0142AF8D00C2A05D1C8
S31900001B306A466B461B7802241C431470401C3028E6DB68467B
S31900001B44007812BD38B500248F4D285D00F00CF8641C302CFE
S31900001B58F9DB31BD7C1B0020D6110020EC180000B402002019
S31900001B6C79B584B06846007C694608706846007C382148439E
S31900001B8083490818E83003900026684601F0E6FA002802D114
S31900001B940398067399E0002500240398017B7C4801224B1EFA
S31900001BA8012B40D91B1F012B7CD90A3B012B3AD99B1F012BB9
S31900001BBC76D99B1F012B34D99B1F012B70D91B1F5BD05B1EC0
S31900001BD05DD05B1E57D05B1E59D0DB1E50D05B1E2ED05B1E83
S31900001BE430D09B1E012B5FD9DB1E27D05B1E29D09B1E022B82
S31900001BF858D91B1F28D05B1E28D09B1E52D09B1E28D09B1EBA
S31900001C0C4ED09B1F012B45D99B1E25D05B1E28D09B1E45D0AF
S31900001C200A3B28D00A3B37D09B1E3FD044E05A48007A0328EE
S31900001C3440D16846007C00F04DF83BE0684602F0CBF937E090
S31900001C48684602F0F7F933E0012108E0684602F027FB2DE006
S31900001C5C684602F05DFB29E00221684602F0E8FA24E0684616
S31900001C7002F099FB20E06846007C02F0BBFA1BE001250224BC
S31900001C8418E00425067027290BE0067003250424282906E077
S31900001C980620039908700BE004240670472907D1027005E0D0
S31900001CAC0A0069466846007C00F076F8384869468978455414
S31900001CC06946C979032902D169464979445406B070BD00002E
S31900001CD44010002010B5382242432C4B9C18E8342C4A937C16
S31900001CE8022B02D16420207310BD0223937401290CD00229A1
S31900001CFC07D00F2908D0102903D01B2904D01C2905D102F0B6
S31900001D1057FC01E002F012FC207010BDF8B506000C00170052
S31900001D241D000820002C00D1052038217143174A5118D8315E
S31900001D380978194A1278D20601D40F290CDA0F2900DA050041
S31900001D4C002F04D02100300002F0E9FB02E0300002F0D8FB7C
S31900001D60854200D905000B21300001F07FFC00060AD0002FED
S31900001D7405D0002C03D0072D04DB062502E0052D00DB04252B
S31900001D882800F2BD281B0020B40200205A2600207C1B0020DA
S31900001D9CD0140020D1110020F7B584B007480849C97B0A0158
S31900001DB0511A074A51180C186846007C0290382148430449E3
S31900001DC408E000BF7F0900007C1B0020DC1C0020B402002031
S31900001DD80F18E820385C69460870EC20385C487000220B2161
S31900001DEC6846007C01F016FAA17BC648C62252008218019221
S31900001E00012512782A4202D001220A4301E0FE220A40A2730A
S31900001E14FB2162780A406270227A11402172059989782170F2
S31900001E2805994979E171A17B02220A43A273E63769460E7EF4
S31900001E3C362E0CD04B2E0AD0612E08D07A7EF8211140019A95
S31900001E50927A5207520F0A437A7602998A00511840189C30C3
S31900001E6401906846007E401F0BD0401E1CD00F3807D0401EA7
S31900001E7818D00B3803D0401E14D00D38012800D88AE0801FC1
S31900001E8C0ED0401EF9D0401E07D0401F4AD0001FF3D00B3864
S31900001EA000D1CAE0163800D1E0E012E1A57168460378012279
S31900001EB40121007CFFF730FF3A78C321114082003C23134036
S31900001EC80B433B7002000121A01C01F08DFD20000930A11C96
S31900001EDC052202F0BFFB797EF72008402179C90008221140E5
S31900001EF001437976EF200840217909011022114001437976F4
S31900001F04062E03D0222E01D0162E0CD1A07BFD210140A173EC
S31900001F186078012101436170207A05432572062E01D0162EDE
S31900001F2CBDD17FE0A57165736846037800220121007CFFF7E1
S31900001F40EDFE3978C3220A4081003C230B4013433B7002008E
S31900001F540021A01C01F04AFD6846437800220121007CFFF73F
S31900001F68D9FE3979C3220A4081003C230B4013433B71020078
S31900001F7C00212000093001F035FD787EF72101402079C00006
S31900001F900822104008437876EF210140E07A93E0402E03D124
S31900001FA468460378002206E0362E684603782A4601D0002103
S31900001FB800E00121007CFFF7ADFE3A78C321114082003C2328
S31900001FCC13400B433B70362E02D10200012101E00200002150
S31900001FE0A01C01F005FDFF20E071797EF72008402179C9000F
S31900001FF40822114001437976052E03D0212E01D0152E07D1E4
S31900002008A07BFD210140A17360780121014361700020A071F0
S3190000201C402E01D1A57156E0362EFBD0052E01D0152E50D187
S31900002030787EF821014079764BE0A571684643780022012169
S31900002044007CFFF769FE3979C3220A4081003C230B40134347
S319000020583B7102000021A01C01F0C6FC05984079207027E043
S3190000206C0020A071372E00D1A571684603780122A179007CFB
S31900002080FFF74CFE3978C3220A4081003C230B4013433B70FA
S3190000209405994979217001998978222907D13878C3210140AE
S319000020A8182008433870042200E002000121A01C01F09AFC86
S319000020BCFF20E071787EEF21014020790001102210400843EC
S319000020D078766846007C02F0E1F902280BD06846007C02F0F1
S319000020E4DBF9032805D0019800780007000F022803D1A07BCE
S319000020F8FD210140A173A07B8007800F04210143A17307B0F6
S3190000210CF0BD00004010002080B5FF280ED0032808D18A7B59
S319000021209308012B04D19207920F082313438B7300F09CFBC9
S31900002134012002BD002002BD38B500245C4D285D00F0BCF8EF
S31900002148641C302CF9DB31BDF1B582B00020694648706846D2
S3190000215C007A01903821484354490F18D837387F53490A7CCE
S31900002170012A5ED1497C00295BD1C01E01280AD91038012886
S3190000218407D90C38012804D91C380CD00F3818D019E0387C0B
S319000021984000474908187A30048801206946487015E0787C96
S319000021AC4000424908187A300088797D49003F4A51187A3120
S319000021C00988441807E0787D00E0787C40003A4908187A30DB
S319000021D404886B4600AA921CA1B26846007A02F06BFA3978D9
S319000021E8012905D1388B6946488000206A4610703978002979
S319000021FC0AD1787D40002D4908187A3000886946488000205A
S31900002210087001E0002831D102F034FC002809D00B2659255F
S31900002224F2B205216846007A00F0F8FFE8B2FEBD0120F97DDB
S319000022380907090F022922D101998A0051188F4A51189C31AA
S3190000224C0A78D20619D48978202914D0222912D0242910D0A9
S3190000226026290ED031290CD001216846007A02F01FFC002882
S3190000227405D116266525D3E757251526D0E70028CED0684618
S31900002288007A02F0ADFB05006846007802F05DFA38781028CC
S3190000229C02DB388B00193883684640780028C1D0387C7874F5
S319000022B0BEE70000281B0020B40200207C1B0020F8B5382179
S319000022C441439C4A5118E0310091097D582410220323994D4B
S319000022D80E00652E00D9C9E001A7BF5D7F00BF44CC5F5F9C5D
S319000022EC9CB3B3C5C5A3A7AFB1494B4D545F5F9C9CB3B3C54C
S31900002300C545475B5D5F5F9C9CB3B3C5C5A1A5ABAB3237349B
S319000023147C7F9CB3B3CC7C7F9CB3B3B3CC82849CB3C5869C2E
S31900002328B3C5C5C5C539A9AB8C889CB3C5CCCCCCCCCCCCCC8B
S3190000233CCC96CCCCCCCCCC3F3B3D41439FB3C590CCCC2C245F
S3190000235091E002F0E3FC75E032248CE048248AE05D2488E05B
S319000023645B2486E05E2484E05F2482E0602480E01B247EE02E
S319000023781C247CE00F247AE0102478E00B2101F071F90028E7
S3190000238C73D1112471E00B2101F06AF900286CD112246AE008
S319000023A01D2468E01E2466E00C00287A042862D101290AD001
S319000023B402290AD011290ED012290ED01D2906D01E2906D0A0
S319000023C855E0032453E0042451E01F244FE020244DE01324F9
S319000023DC4BE0142449E002F0FFFC2DE002F0AEFD2AE0012198
S319000023F008E0002102E0012100E0022103F01DFA20E0022196
S3190000240403F018F91CE00822052100F007FF57242FE01322B9
S31900002418052100F001FF562429E0FFF795FE0DE0612424E012
S3190000242C272422E00B2420E028241EE00C241CE047241AE03F
S3190000244003F084FA040016E00D2414E00E2412E07749EC7BA7
S319000024542601341B764E341961180C7823401A430A7002F0BE
S31900002468A5F90400E87B401CE87300E0642403F0FCFB0099B3
S3190000247C086000980475F1BD40100020F8B56B480221FF2508
S3190000249000220126294C237A082B4BD801A7FF5CBF4400BFBC
S319000024A40A0A1026162C5E688800667062480BE0627062485D
S319000024B808E0624B1A7506221A70DA7205225A701A73617099
S319000024CC6060F1BDFFF742FA00F054FBA0721749022804D1A6
S319000024E07020085A6A1C024305E0002805D17020085A554AB1
S319000024F4024070310A80657066732674F1BD6021514803F05E
S319000025086DFC02E0607C01280AD14F48E17B0A01511A464A95
S3190000251C51180818606003206070F1BD6570F1BD0720607041
S31900002530A6736272F1BD0000B40200207C1B002010B5012083
S319000025440022434C38235343E318F4331B78642B01D0652B36
S3190000255803D100203E49C87410BD521CD2B2302AF8DAEDE7F3
S3190000256CF8B53B4EF068083003F03AFC55217054705C002838
S3190000258010D1F1BD61782000183000F065FAFFF7D5FD207AC0
S31900002594401C2072607A00281DD1FFF7CFFF25732E48017804
S319000025A804220A430270F0682C490180083003F019FC552130
S319000025BC7054705C002827D0FFF794F9FFF737FA0027224C17
S319000025D0277220498F81012565726760FFF754FFFFF7B2FA30
S319000025E461686078FFF794FD0028CED00121042001F065FB58
S319000025F8002810D0F0689621C9000180083003F0F1FB5521DB
S3190000260C7054705C002804D102211036300003F0F3FB00218C
S31900002620042001F04EFB0028ACD000F00DFAAEE78D0900007C
S31900002634DC1C0020432600205A260020D014002045260020BC
S31900002648FFFE0000301500207F090000B40200207C1B002001
S3190000265CD8180020CC1C0020FFFF0000F0B587B0002579498B
S319000026700978082901D1012400E00024764ECD21090171185E
S319000026840391754971180291C721090171180191012850D078
S31900002698714A0021300003F0C0FB0622002104A803F0BBFBD0
S319000026AC010004AF002C12D0012003F0D2FB3888694909886E
S319000026C0884207D17888002802D1B888002808D0062000E01D
S319000026D40A205F49087004A9002003F0BEFB9520000130182B
S319000026E800903888009908800C2200215C48301803F093FBAB
S319000026FC0098008800994880002C02D10C2003F08BFC9A20E4
S31900002710000133185A220821019803F0FBFD9F4833180222E4
S319000027240821029803F0F4FDA248331805220821039803F0E1
S31900002738EDFD019803F003FE029803F000FE039803F0FDFDFD
S3190000274C012000F030F89A4C0C22FF21200003F062FBA822CC
S319000027600021974803F05DFB602200210C34200003F057FBCC
S3190000277493490D8093490D7020220021924803F04EFB924935
S319000027880D7092490D70924845810020C043B8490860022014
S3190000279CD5210901705407B0F0BDB5490988C140C807C00FCD
S319000027B07047F8B5070060220021A64803F031FB6022002151
S319000027C4AE4803F02CFB234E1E220021AC48301803F025FBCA
S319000027D8AB4830180090FF24C47500988477A94830180325CC
S319000027EC01782940017044700472C17B2940C1731722002123
S31900002800A348301803F00DFB009804700098C4720098457069
S31900002814009805730520009A90700099487305220721B04840
S31900002828301803F0FAFA05220721AE48301803F0F4FA0720D2
S3190000283C009A507200990875002F04D060220021A84803F087
S31900002850E8FAF1BD3C100020DC1C0020BC0C00006C0D000019
S319000028640431002054090000FEB502006E4632709F4DA04CC5
S319000028780F200723162A1CD801A7BF5C7F00BF440C0B19192B
S3190000288C3E42461A4C0C4C4F555A186171363A7A7F3E6400BB
S319000028A001916946C7200001201803F05CFD002803D1A87855
S319000028B402210143A970F7BD01916946AB48201803F04FFD2B
S319000028C8002803D1E87804210143E97003F030FA0028EED1D4
S319000028DC0021A54803F00BFA002001F06DFB002003F002FA54
S319000028F003F00EFAF7BD087800F084FAF7BD087800F062FAB1
S31900002904F7BD080003F0B7FDF7BD080003F0BAFDF7BD0D88A7
S31900002918290AE8B203F0BCFDF7BD0888B080BCE71822934800
S3190000292C201803F0BDFEB6E70020C0434F490860F7BD8F4860
S3190000294020180278202313430370EAE70C22B648ECE70D885A
S3190000295401234A68B449EEB2A419615C01402C0A204003F0B2
S31900002968A7FEF7BD0C78E20921090B401900204003F0A0FF0D
S3190000297CF7BD0878029004F00EFBF7BD0C78E20921090B40E6
S319000029901900204003F0B2FFF7BD0000840C000080B503F0A4
S319000029A4BDF901E000F074F8A04803F0D8FC0028F8D101BDC8
S319000029B8940C00004819002010170020CA1C0020C81C002093
S319000029CC5C1B0020581B0020591B0020B402002030B583B045
S319000029E06A461070444A654BD318424C002808D0012809D0F4
S319000029F402280AD003280BD0072813D00EE01878FD2507E026
S31900002A081878FB2504E01878F72501E01878EF2505401D701D
S31900002A1C019103E0E07802210143E1706946CD200001101856
S31900002A3003F099FC002803D1A07804210143A170042001F061
S31900002A4419F937BD2A48817808220A4382707047D0140020E3
S31900002A5838B505000C002900AF4803F0ACFC2878844204D071
S31900002A6C2148817810220A43827031BDC41C00202C2600201D
S31900002A80301500207F090000680900008D09000067090000D8
S31900002A941CB5184C69463548201803F08EFC364824186846AA
S31900002AA80078022804D003280CD0072814D013BD03F032F996
S31900002ABC2078082101432170019804F095FA13BD03F028F96A
S31900002AD02078102101432170019804F069FD13BD04F0ADFCEE
S31900002AE413BD00006B09000076090000701400202031002000
S31900002AF8DC1C00201CB5AE4C6946C7200001201803F059FCCA
S31900002B0C694688881A4AA4180978002908D001290FD0082914
S31900002B2017D00A291AD00D291BD013BD03F0F8F82078022108
S31900002B340143217005F026F813BD03F0EFF8207804210143F4
S31900002B482170019805F054F913BD010AC0B204F082FC13BD78
S31900002B5CC449088013BD00F0EDF82078DF210140217013BDEB
S31900002B70BC0C0000A129000038090000690D0000F0B583B02A
S31900002B840125012600248B4FA010400F0019C010C1B2B74A90
S31900002B98515CC000221A01209040014235D021483919081866
S31900002BAC0190007800096946087068460078FFF7F4FD0028A1
S31900002BC027D0019800780107090F6A461278B4235A43BA1853
S31900002BD44A321288CA402A4019D149000009B4225043381868
S31900002BE84018B8300088B74988420ED3B64800190178491C6B
S31900002BFC0170C9B2022905D10D21200003F046FC0220FEBD72
S31900002C100026641CE4B2602CB8DB002E01D00020FEBD012054
S31900002C24FEBD0000440D0000D808000098290020F8B5060016
S31900002C38012401256B4601229C2105F05FFB684600880228F7
S31900002C4C55D06B4601229C21300005F055FB684600880228E3
S31900002C604BD06B4601229E21300005F04BFB3700514D6846BE
S31900002C74008806217943695A884224D16B4601229D21300097
S31900002C8805F03CFB6846008800281AD0B248790069180818AA
S31900002C9C01786A4612889208224005D00A090F2A0DDA103116
S31900002CB001700AE00F220F230B400F2B05DAF0230B40491C25
S31900002CC40A401A4302709520000129180A880120B04082437E
S31900002CD80A80488A0122B24002434A829F48006881780422F2
S31900002CEC0A4382709D4881780C43847000252800F2BD38B585
S31900002D000500002428002041C00704D5974AA821200005F0A8
S31900002D14E3FA641C0C2CF3DB31BD0000AC29002038B504006E
S31900002D28002520002841C00702D5280003F076F96D1C0C2DF9
S31900002D3CF5DB31BDF8B50400002700250126200028413040A2
S31900002D5011D002229C21280005F0C0FA6B4601229C21280017
S31900002D6405F0CEFA68460088022802D00120A84084436D1C0D
S31900002D780C2DE6DBA94DA88A00280AD0FFF7CEFF2888A98A77
S31900002D8C01432980288A04432C82AF82F1BD002C03D020009B
S31900002DA0FFF7ADFFAC82F1BD80B503F045F8802080029D492E
S31900002DB4086001BDDC1C002080B500210C2003F051FB01BD48
S31900002DC880B501000A002948802A04D10C22FF2103F023F865
S31900002DDC01BD0B00813B0D2B04D2FF2180188138017001BDAA
S31900002DF0D2088018027801234907490F8B401343037001BDBF
S31900002E04C1081B4A51180A7801234007400F83409A430A70C7
S31900002E187047C108154A515C4007400FC140C807C00F704728
S31900002E2C70B57F4C0025656002F01DFF0600E07B002807D044
S31900002E402168300002F018FF202801D31F38606001207749A2
S31900002E540A7802430A70A58175490D704D608D60E07326604F
S31900002E68A17B4840A07370BDCA1C00204819002070B50500BB
S31900002E7C6B4C01E0761C2673267B0C2E1DDA3000FFF78BFCFA
S31900002E900028F5D03000FFF7CDFE00280ED065480178491CB9
S31900002EA40170207B002D02D003F00AFF04E0617B03F058FD05
S31900002EB801206073207B401C2073012070BD002070BD0000E7
S31900002ECC890200007014002038B5584C58496518002803D013
S31900002EE0E868400068600EE0297A002909D028690A2250439D
S31900002EF400F0C7F8401D0A2100F0C3F800E00F2028804E4895
S31900002F0800784E49615C884201D105F083FA05F076FB31BD81
S31900002F1C38B5464D002809D101E0FFF7E9FDC7200001281834
S31900002F3003F017FA0028F6D1434C207801280ED142482D1896
S31900002F44287805F087FB2878001D2870C0B2102803D1002069
S31900002F5828700220207031BD510D0000A40200202031002092
S31900002F6CCDAB000070B5374CE068083002F038FF5521605458
S31900002F80605C00284CD002210C2003F06DFA0126264DAE73D3
S31900002F94FFF74AFFA87BFFF76DFF00280BD0E0680021018072
S31900002FA8083002F01FFF55216054605C0028EFD12DE0A87BC9
S31900002FBCFFF78AFFA87BFFF7ABFF68681F2802D21F21081A6C
S31900002FD000E00120A86005F09DFB02F04AFE296802F04AFE4C
S31900002FE40100E068AA68914209D30680083002F0FBFE5521AA
S31900002FF86054605C0028C9D109E0511A0180083002F0F0FEA0
S3190000300C55216054605C0028BED102211034200002F0F2FEA4
S3190000302070BD00002C26002018440041641C0020CC1C0020B2
S31900003034A8250020DC1C0020C4080000B4020020660900006C
S31900003048D91C00209D090000D8180020F446002804D44942DE
S3190000305C00F013F8404260474042002905D45FD000F00BF890
S31900003070404249426047494200F005F84942604703460B4351
S31900003084E6D40022030A8B420BD203098B4219D243088B42C3
S319000030982ED2411A00D20146524110467047FF2209023FD0CF
S319000030AC12068B4205D3121209028B4201D312120902030942
S319000030C08B4219D300E0090AC3098B4201D3CB01C01A5241A4
S319000030D483098B4201D38B01C01A524143098B4201D34B0183
S319000030E8C01A524103098B4201D30B01C01A5241C3088B42A3
S319000030FC01D3CB00C01A524183088B4201D38B00C01A52418A
S3190000311043088B4201D34B00C01A5241884200D3401A524177
S31900003124CFD201461046704708B505F0F7FB08BD80B50902F3
S3190000313801436846018069460620FFF793FB01BD80B50902B3
S3190000314C01436846018069460820FFF789FB01BDF8B5040036
S31900003160207830283DDA0021E171FF21617121719A3140004C
S31900003174274A10184018017845780127FF2902D1FF2D1BD1DF
S319000031882BE02348234A5218105C00096070A1700C2822DA5A
S3190000319C217A002903D0FFF700FB00281BD0E7716078062127
S319000031B048431A490818C078400801210140E170FF2D24D0A3
S319000031C4144815494919085C06090C2E07DA207A002806D0AF
S319000031D83000FFF7E4FA002801D10020F2BD062070430C49E2
S319000031EC0818C07840080740A771E079012804D10320E071FF
S319000032006571267103E00220E071A57066700120F2BD000036
S3190000321440100020D8080000DC1C0020F2B586B0150001271E
S31900003228002602AC802859D100292DD001294FD0032902D079
S3190000323C042903D046E12900802091E0A248A349891908187F
S3190000325001780A09A14B1B88D3403B4014D00807800E0B0926
S31900003264B42463439B4CE3181B18C8330807800EB4214A43C3
S31900003278A1180818C83001680120A84081431960761C602E9C
S3190000328CD8DADBE76022FF21924802F0C4FD302591484019FE
S319000032A0401E00782070277202A8FFF757FF00280FD0A07800
S319000032B48C49884A92195054761CF6B2E079032805D160799D
S319000032C8834A92195054761CF6B26D1E05D0E1E7C02200216B
S319000032DC834802F0A0FDF5E06946097E0200813A0D2A03D2AA
S319000032F00329F6D1290039E020702772032900D1267202A827
S31900003304FFF72AFF0028EAD0BA4E6846007E801E0B28E4D8ED
S3190000331801A1095C49008F440518D728345761206D8177C02B
S3190000332CA07840006E490818AF40018839430180E07903285F
S3190000334006D1607940006949081801880F430780BEE0290088
S31900003354A078FFF7EDFEE0790328F7D102E0E079032803D1E0
S3190000336829006079FFF7E2FEAEE02900A078FFF7E7FEE07970
S3190000337C032803D129006079FFF7E0FEA2E0B3485149A27831
S31900003390514B9A18515C0907090F6278D20082185554E179B7
S319000033A40329EFD12178382251437118F6310978490839429F
S319000033B809D0464962799A18515C0907090F2279D20080182C
S319000033CC45547FE0A11C1120FFF74AFAE079032878D1611D7C
S319000033E0112008E0A11C1220FFF740FAE07903286ED1611D5A
S319000033F41220FFF739FA69E02A0002A901A800F036FB002854
S3190000340862D001A9102045E02A0002A901A800F02CFB0028BC
S3190000341C58D001A914203BE0684600784006400EE90101438D
S3190000343068460170F0270078384061780907090F0143684669
S31900003444017070268F2529402148A278214B9A18105C00013C
S3190000345830400843694608701320FFF703FAE079032831D1CC
S3190000346C68460078074020790007000F3843694608706846DA
S319000034800078054013486179134A5118085C000106402E435E
S319000034946846067069461320FFF7E6F916E06E4D2A00A1784F
S319000034A8607800F0CEFAE07903280DD1207838214843301854
S319000034BCF63000784008384204D02A006179207900F0BDFA7E
S319000034D007B0F0BDD8080000DC1C00202E260020C029002009
S319000034E4281B0020E40C000050160020F2B582B004000025F3
S319000034F80026594F0D2C18D19620000138186946097A042964
S3190000350C06D0052907D00C2907D00D2908D06BE05148395A39
S3190000352055E0867966E04688458063E00688058060E0FFF7F8
S3190000353438F900285CD04B486100791808180090B42060434C
S3190000354838184E3001900620604339180F206A46127A0F2A4C
S3190000355C4AD801A39B5C9F440E121A248E8E3C44505E647A2F
S319000035708E8E88800E883DE088788607B60F39E0897889086D
S319000035840F260E4034E001984188B7484843BB30BB2149009A
S31900003598FFF775FDB449461A28E000984678457024E00099A4
S319000035AC09780F260E40F02002E0009909780E0908400099FD
S319000035C0087017E00198018801E001988188C8204843AA3090
S319000035D4FF215631FFF755FD060009E0C878C60701E0C878D1
S319000035E88607F60F02E0A14839190E5C30B2FEBDB40200203D
S319000035FC70B584B00C0015006E463070012030726846FFF780
S31900003610A5FD00281DD0002C01D0717900E0B1780F48954AC3
S3190000362441188A180F21002D127808D1114089001209B42305
S319000036385A4380184018806D07E011401209B4235A4380189F
S3190000364C40189830007804B070BD000054190020B81C00206A
S31900003660DC1C0020C4080000510D0000F2B586B0040002AD7E
S319000036742C7001262E726846007E019000270A2800D12F7251
S3190000368802A8FFF767FD002867D00F21D44A6846007E0C2817
S3190000369C70D802A31B5C5B009F4400BF073B5E606A78B4B469
S319000036B0B4BFA8CD7800A8786F4B1018C01803780F201840C4
S319000036C440001B09B4277B43D3181818B8300388E8790328D5
S319000036D819D138204443C3480019F63000784008304210D0B3
S319000036EC6C796248141924182078014049000009B424604326
S3190000370010184018B83000881818C3031B0CC8205843AA3045
S31900003714FF215631FFF7B5FC20E0A878554B1018C018007815
S319000037280F2303405B000009B42460431018C018A8300088D3
S3190000373CEB79032B0FD16C794C4B1419E4182378194049001F
S319000037501B09B4246343D2185118A8310988401880B281E015
S3190000376401207FE06878B42148431018FA3000784008064033
S31900003778300075E0E879032871D13820444399480019F630E5
S3190000378C00788107C90F0120484067E06878B42358431318DE
S319000037A04A331888019C0C2C00D158886B461F80314BAC787C
S319000037B41419E35C0B401841304001D06B461E70E8790328DF
S319000037C813D12879B423584313184A331888019C0C2C00D102
S319000037DC5888264B6C791219D25C11400841304001D06846BB
S319000037F046706846008837E069780120884080B2E979032932
S3190000380430D129798E400643B0B22BE0A878BB49085C0002F9
S31900003818EA79032A24D16A79895C084320E0A878FFF7F7FAF7
S3190000382CE97903291AD104006879FFF7F0FA010020000840DB
S3190000384012E06878062148431018C17801200840E979032992
S3190000385408D12979062359435118C9780E40304300E00020AF
S3190000386807B0F0BD521C0000D20A000054090000D80800005B
S3190000387CFEB56C462070012020726846FFF768FC002800D189
S31900003890A9E055489B49A2788218525C0F210F2313409B0062
S319000038A41209B4256A438218D218C83217680022E379032BC0
S319000038B852D1924B65794519EB181D780F262E40B600B446CF
S319000038CC2E09B4256E4385196646AD19C8352D683D432F00D0
S319000038E01D780F232B409B002D09B42675434519EB18C833DD
S319000038F41A70834B65794519ED5C0F232B409B002D097543B7
S319000039084519EB18C9331A707C4B65794519ED5C0F232B40D5
S3190000391C9B002D0975434519EB18CA331A70764B6579451923
S31900003930EB181D782B460F262E40B600B4462E09B4256E4360
S3190000394485196646AE19CB361D09B4235D43431965465B193F
S31900003958CB331B780B403370684BA5784519ED5C0F232B40C2
S3190000396C9B002D09B42675434519EB18C8331A70614BA5782F
S319000039804519ED5C0F232B409B002D0975434519EB18C93303
S319000039941A705B4BA5784519ED5C0F232B409B002D097543FF
S319000039A84519EB18CA331A70544AA378C3189A1814782246E3
S319000039BC0F2323409B002409B4256C430419E318CB330F24C3
S319000039D01440A40012096A4380180019CB300078014019702F
S319000039E43800FEBDDC1C0020B40200207AB50121C170002541
S319000039F8857002240323561E022E09D9F61E0AD0761E0AD092
S31900003A0C761E11D0761E012E11D973BD0570417073BD017087
S31900003A2009E06A461278002A01D0047003E00622027007E096
S31900003A340370447073BD0424082A00D10524047043708170B5
S31900003A4873BD1CB56B461B88F02424021C400002F0231B0148
S31900003A5C03400B43234368460380019269461620FEF7FEFEBF
S31900003A7013BDF2B570218F230F24022A009D1CDA6D7807782C
S31900003A84F0263E402540354305701D4FBC46009EB7781C4E9D
S31900003A98F6196746F65D34402B402401214019430170002AA9
S31900003AAC22D001784906490E01700120F2BDED79032D01D047
S31900003AC00020F2BD009D2D790778F0263E4025403543057075
S31900003AD40B4FBC46009E77790A4EF6196746F65D34402B40A8
S31900003AE82401214019430170022ADCD1017880220A430270BE
S31900003AFCDBE7000030150020D8080000DC1C002008B4024B88
S31900003B109C4608BC6047C046D901002008B4024B9C4608BC9F
S31900003B246047C046E901002001007D4806224823C35C8B428B
S31900003B3803D05830521EF8D10020704780B5FFF7F1FF0028C5
S31900003B4C08D00188754A914204D15521415C002900D1018009
S31900003B6001BD10B50C00FFF7E1FF048010BDF8B502F07FF87F
S31900003B7404006D4800900168200002F07BF800990C600028D3
S31900003B8836D000998A687449002A09D0052807DB48321278BF
S31900003B9C742A03D0CA7808231343CB70002200235E4F02E0CC
S31900003BB02D1A25805B1C6B4C2478DBB2A3421BD29C007C4D81
S31900003BC42C59002CF4D0009DAD68A542F0D025882E00BE423E
S31900003BD8ECD08642E8DA4825655D742D06D1851B052D03DB36
S31900003BECCD7810262E43CE702280DDE7F1BDF0B5002000219B
S31900003C0000226D4B1C00543465694926AE5D012E0FD12E881F
S31900003C14E77BB7420BD3002E05D0207C002827D103202074E7
S31900003C2824E0DD6020741DE0401C2578C0B2A8421AD28500EA
S31900003C3C5D4E7559002DF5D02E88002EF2D14926AE5D002EB4
S31900003C50EED0002901D12A0001215526AE5D002EE6D027794B
S31900003C643742E3D12A00DA600120F0BD002AFAD10020F0BD25
S31900003C78F8B501248440E4B2384D2879204201D10020F2BDDD
S31900003C8CFFF73EFF00200021474A09E08B00D358002B04D07B
S31900003CA055269F5D274200D01880491C2B78C9B29942F1D3A0
S31900003CB42879A0432871FFF72FFF0120F2BD38B50122824013
S31900003CC8D2B23B48C36855241C5D5430057915420AD0002962
S31900003CDC03D0224355331A7002E0944355331C70012032BDA7
S31900003CF0944355331C7000232E4900E05B1C0478DBB2A342F0
S31900003D0408D29C000C59002CF6D0553424781442F2D002E0B9
S31900003D1801790A430271002032BD000060120020FFFF0000B8
S31900003D2CDC18002010B5A74A06234924145D002C0BD1482339
S31900003D40D1545421505400201080A048C26001204932107055
S31900003D5410BD58325B1EECD1002010BD203100202C19002005
S31900003D68FCB5002012495431097801910F4912E09300CB18BD
S31900003D7C1C68009D2D685426AE5D5427E75DBE4202D2009EC1
S31900003D9034601D60521C019B9A42EDDB401C019A521E904221
S31900003DA404DA421C8300CB180093F2E7F3BD0000101C0020FB
S31900003DB8D818002038B5844900220020214C9300E35808336F
S31900003DCC04D0C0B28300E150401C5831521C062AF3DB7B4DCA
S31900003DE054216854FFF7C0FF5420285C80002018001F0068AC
S31900003DF4E86031BD70B5754E842292000021300002F00DF817
S31900003E08182200210F4802F008F86E4D092200212800583045
S31900003E1C02F001F828005430F021017100240021C173017088
S31900003E3001226235280001F0F4FF6648582161437052641CA5
S31900003E44062CF9DB70BD0000101C002080B5FFF78DF802E053
S31900003E5880B501F023FF6846C01C6946401A02BD80B5FEF78C
S31900003E6C7FFBF6E780B504F05BFEF2E780B505F085F8EEE70E
S31900003E8080B504F01EFDEAE7F8B5FFF7B5FF74213A20FFF7D7
S31900003E944DFF4D4C250055352000103001F0A4FF2870287854
S31900003EA8002803D1FFF7D4FF00284FD075211A20FFF73AFFF5
S31900003EBC2000103001F094FF28702878002803D1FFF7D8FF07
S31900003ED000283FD064211920FFF72AFF2000103001F084FFF0
S31900003EE428702878002803D1FFF7B0FF00282FD06321182008
S31900003EF8FFF71AFF2000103001F074FF28702878002803D1A9
S31900003F0CFFF7B4FF00281FD06E210720FFF70AFF20001030C6
S31900003F2001F064FF28702878002803D1FFF79CFF00280FD067
S31900003F3470210620FFF7FAFE2000103001F054FF28702878F2
S31900003F48002805D1FFF790FF002801D10020F2BDFFF730FFEE
S31900003F5C7420FFF7E5FDA06626000C36002737602F732000F1
S31900003F70103001F03BFF2870287800281ED1306800280BD0E2
S31900003F8401F075FE3168C96C01F074FE706431680A6D9042D8
S31900003F9800DB0865FFF7E7FDFFF72BFE002808D001F063FE7C
S31900003FAC01003068C1640121083001F025FF3760287B00286C
S31900003FC0D5D0F2BD0449087070470000D81800206012002075
S31900003FD4FFFF00003B190020F0B501788A005218924B9A18C0
S31900003FE89E321278914B01249C75914DAE79002E07D06420C5
S31900003FFC38225143A84A5118F4310870F0BD0226AE71FF25AD
S31900004010DD7203275F731D73197080785870212A01D0232A09
S3190000402401D19C70F0BD092A03D19E700420D870F0BD0020A9
S319000040389870F0BD10B5030018787C4A022494752D2909D13C
S3190000404C1178814201D1002200E00122997800F006F810BD4B
S319000040605A79997800F03AF810BDF8B50700A8480B235A4304
S31900004074A74B9A1815182F7069700021380001F0B9F8382195
S319000040887943864A5618E6360524F1780C2907D1012801D16E
S3190000409C572000E05820B073AC70F1BD7278380000F06CF8D8
S319000040B0A870012801D1A87903E0002802D196480078E87036
S319000040C4707E400900D0EC7030788007800F012801D10620A0
S319000040D8A870F1BDF1B582B00D00170001216846007A01F0D1
S319000040EC85F8514C6946097A217065706946097AE172062657
S31900004100667327736946097A009138225143654A5718E63746
S319000041140525F9780C2907D1012801D1572000E05820B873F4
S31900004128A570F7BD7A786846007A00F029F8A070A179002837
S3190000413C11D0022812D003D304280FD009D30FE000988200B6
S319000041501018374A10189E300078242806D0E17004E020794E
S31900004164E07001E0A6706073787E400901D0E570A5733878FA
S319000041788007800F012801D1A6706673F7BD000083001818C6
S3190000418C284B18189E300078212801D0232803D1042927D0D3
S319000041A00420704722280BD0092821D0491E07291ED801A3B2
S319000041B45B5C9F44060606360A1A321E00207047202813D099
S319000041C8262811D0252801D1042A0DD001207047202805D08F
S319000041DC262803D0252803D1042A01D10220704703207047D4
S319000041F00620704710B584B0040068460470FEF7ADFF0028F0
S3190000420407D1642038214C4325490919F43108701FBD9B4870
S319000042180221817505210278A24200D18170C27AA24200D13C
S3190000422C41731FBD4010002043260020881B0020F1B50F0077
S3190000424091498A79007883001B18904CE3189E331B788C4C46
S319000042540125A57502268E71002A07D06421382250438A4AA2
S319000042681018F4300170F1BD2070009989786170E0720098EC
S3190000427C40792073212B01D0232B02D1A570657302E00020AF
S31900004290A0706073022F04D1FF20207060700320A070F1BDCB
S319000042A4B402002070B506003578754C0220A075280000F042
S319000042B8C9FF38216943744A5118E7318A788B799A4205D029
S319000042CC3E204873300000F023F870BD0C2A00D14EE025708D
S319000042E0B0786070E572707920730A7889782800FFF74AFF0F
S319000042F4A0706073002802D12179E170A173012802D1A079BE
S31900004308E070A073002131E067090000DC1C002047260020F1
S3190000431C70B506003578584C0220A075280000F08FFF3821D5
S319000043306943574A5118E7318A780C2A02D08A790C2A00D191
S319000043441AE02570B0786070E572707920730A78897828005A
S31900004358FFF716FFA07005216173002801D12179E170012828
S3190000436C01D1A079E0700121280000F062F870BD0100280012
S3190000438000F001F870BD38225043414A1018F430012901D14D
S31900004394572100E0582101703D4805210170C1727047FEB514
S319000043A8070038780090384E3821484330180290ED300078DB
S319000043BC400030187A300588344C0220E07201AB9B1C01AA26
S319000043D029000098C0B200F071F90298D8300178002908D129
S319000043E4018B427C5200B2187A321288891A6A469180694600
S319000043F88988A94206D20C214175632101770520A070F7BD0F
S3190000440C0099217079796170C27C417D0098C0B2FFF7B4FEFB
S31900004420A070002801D12179E170012801D1A079E070022106
S319000044340098C0B200F001F8F7BD38225043134A1018E6303F
S31900004448427E520900D17047D8B5104A06230324052600292C
S3190000445C01D0012907D1567007782740012F00D1137000291A
S3190000447001D0022905D1167300790440012C00D1D372D1BD49
S3190000448443260020881B002040100020B40200204526002001
S319000044984E260020810008186D4908189E300078093813D095
S319000044ACC01F05280CD91138012809D9C01E032806D90C3885
S319000044C0012803D92038012802D905E00220704703207047E9
S319000044D4012070470020704730B5030001209D00EB185C4DCD
S319000044E8EB189E331B78093B0CD0173B042B09D95B1F03D083
S319000044FC5B1E05D05B1E04D1042902D1002A00D0002022BD11
S3190000451080B5012100F009F8411F012903D9C91E02D1052004
S3190000452402BD042002BD80B5002902D000F046F802BD00F0CE
S3190000453801F802BD1CB501008A005318444CE2189E32127806
S3190000454CE3189C331B781B071B0F042B2ED0032B2ED003232D
S31900004560022A2BD9D21E1CD0921F27D0D21F022A24D9D21E83
S3190000457415D0521E012A1FD90C3A1BD0521E032A1AD9121FC3
S31900004588012A15D9921E15D0093A11D0521E06D01F3A0DD0CB
S3190000459C521E0DD016BD032016BD382041432C484018D43043
S319000045B000780009184201D0052016BD042016BD1CB5010084
S319000045C48A005318234CE2189E321278E3189C331B781B07A6
S319000045D81B0F042B34D0032B34D00324002A2FD0521E2FD07B
S319000045EC521E2FD0521E2FD0921F2BD0D21F25D0521E25D0E0
S31900004600521E25D0521E25D0521E1DD0521E1DD00B3A19D0EE
S31900004614521E032A18D9121F012A13D9921E13D0093A0FD001
S31900004628521E04D01F3A0BD0521E0BD016BD382041430848B6
S3190000463C4018D43000780009204201D0082016BD062016BD60
S31900004650042016BD032016BD40100020B4020020124207D0F2
S319000046648B0706D00B78491C0370401C521EF7D8704783079D
S3190000467806D00B78491C0370401C521EF9D1704770B4103A3C
S3190000468C03D378C9103A78C0FBD2530701D318C918C001D5F1
S319000046A008C908C0D20704D30B880380891C801C002A01D560
S319000046B40B78037070BC7047FDB582B00024384E3200083219
S319000046C850881288904200D3100001910F0034498F4202D1EF
S319000046DC8A21715A019132490978C90723D4302530494919C9
S319000046F0491E0A786946097A8A421AD00199884217DA382131
S3190000470451437118D8310B7B202B02DB09780F2909DA641CAB
S3190000471800900121100004F0C0FC01000098401880B26D1E67
S3190000472CEDB2002DDCD1039A108004990C701B498F4201D1AD
S31900004740022004E0B84201DA012000E0002005B0F0BDF8B554
S3190000475405003024154F00E0641EEDB2002D1ED0E4B238198B
S31900004768401E0078382141430C4A5618D436317C202902DBE3
S3190000477C31790F290DDA08220321FEF74BFD6D1E30790F2864
S3190000479005DA30788006800E402101433170002CDCD1F1BDA7
S319000047A4B4020020FFFF0000CC110020281B002038B50500D5
S319000047B80821FEF757FF38216943874A5118F6310B78FD226B
S319000047CC1A400A7000B2213807D0834BC01A04D0213808D16F
S319000047E0022010430870280000F00AF80400200032BD5A2427
S319000047F4172203212800FEF711FDF6E7F0B585B0070038200D
S319000048087843754908180290F430007869464870002601251C
S3190000481C68464078401F1DD0401E1DD00F381DD0401E1DD006
S319000048300B381DD0401E1DD00D38012824D9801F1AD0401EA1
S319000048441AD0401E16D0401F1ED0001F16D00B3816D00F386A
S319000048581DD0C01F18D01CE007241CE0082414E0172418E01C
S3190000486C182410E0232414E024240CE038240AE037205EE0BC
S3190000488041240CE04C2404E0312408E03D2400E0622401264E
S3190000489403E05A2450E0684644780298D8300190007B887069
S319000048A86846807808706846007836280CDB092203213800E6
S319000048BCFEF7B0FC0198007810282FDB0020019908832BE09E
S319000048D0212804D1012206213800FEF7A1FC684641783800FD
S319000048E400F02DF869460870002207213800FEF795FC0298DC
S319000048F8FF3003900078410712D1C008284204D000220C21EC
S3190000490C3800FEF787FC03980078C00606D5002E04D0022207
S319000049200C213800FEF77CFC68460078019908736846027848
S319000049348178380004F00AFE200005B0F0BD020038235A43C0
S31900004948254B9A18F53213785B060ED52F2906D0302906D0E0
S3190000495C352906D0372904D07047162070471720704718200F
S319000049707047052926D0062926D0152922D0162922D0212982
S3190000498422D0222922D02F290ED030290ED035290ED03729E1
S319000049980CD03C290CD040290CD04B290CD0612914D070472E
S319000049AC102070471120704712207047132070471420704764
S319000049C0152008E0192070471A2070471B2070471C207047FA
S319000049D41220517802230B4353707047B4020020DF2000000C
S319000049E8010064208A0052182A4B9A189E32127838235943C4
S319000049FC284B5918F423CB5C032B14D0042B14D0132B14D038
S31900004A10142B14D01F2B14D0202B14D02E2B26D0342B12D07C
S31900004A243B2B24D03F2B24D04A2B24D024E0052022E0062006
S31900004A3820E015201EE016201CE021201AE0222018E0E83171
S31900004A4C4B780878052803DB052B08DA36200FE03020042B2C
S31900004A600CD1142A01D0152A08D1352006E02F2004E03C206E
S31900004A7402E0402000E04B200121094A5171704708480078E5
S31900004A88C00905D007480088C00501D5012070470020704755
S31900004A9C40100020B4020020881B0020CF11002024030020B0
S31900004AB070B505000C000020934902018E18727812091DD11E
S31900004AC40020002100230FC6103E357001F0CFF870603820CC
S31900004AD845438C484019F530017840220A4302707078000761
S31900004AEC000F002C01D0102100E0302101437170012070BDCF
S31900004B00401CC0B20C28D8DB002070BD10B5002102000B01A5
S31900004B147C4CE3181C78844201D0802A03D15C782407240FE9
S31900004B285C70491C0C29F0DB3820424375488018F530017872
S31900004B3CBF220A40027010BDF8B500240F2720016E490D18F1
S31900004B50287806006978090951D0302807DA00F052F80028F6
S31900004B6407D168780009012803D068783840687043E0687847
S31900004B780109012904D03ED3032930D021D33AE038214E43E6
S31900004B8C5F498E19E43631781D2907DA384020210143697000
S31900004BA001F067F868602AE0362906DAFA21C900686801F0F5
S31900004BB46AF8002821D0687838406870707CBF21014071744A
S31900004BC819E05149686801F05CF8002813D068783840302177
S31900004BDC0143697001F047F86860280000F022F84949686816
S31900004BF001F04BF8002802D0280000F04AF8641C0C2CA2DBEE
S31900004C04F1BD3821484340490818E4300078022808D9C01FE5
S31900004C18022805D90938022802D9801F022801D801207047BA
S31900004C2C0020704770B504000F2560782840400026182078E4
S31900004C403821484331490818FC3000880A21FEF717FA308146
S31900004C5460780F220240521C411C53109B0F9A18921092003D
S31900004C68891AF02202400D4015436570002000214200A21884
S31900004C7C1289891889B2401C0428F7DB6088884200D26180E8
S31900004C9070BDF0B50178428894081C4A3823594351180B0088
S31900004CA4F0335C80E9310D78A026B600194F7F19BE5DA41904
S31900004CB8A4B27C26965BA64200D334006D0055197A352D88CB
S31900004CCCA54200DA2C461C8001259E79012737439F716E00A2
S31900004CE096197A363688A64203DA6D1CEDB2092DF5DB0D702D
S31900004CF441780907090F41705879BF2101405971F0BD0000AB
S31900004D0890150020B4020020540B0000740E000028150000D8
S31900004D1C70B504000621FEF7A3FC2B4D6100691808860100B0
S31900004D30200000F019F838216143274A5118F6310B78CF22D6
S31900004D441A40542807D15B0030261E401643102232430A701E
S31900004D5804E05B002026334013430B70285570BD70B50A009F
S31900004D6C0100880040181A4B1E189E361948121A0DD0521E03
S31900004D8014D13920052204253678222E02D1322003220EE055
S31900004D94092E0CD105E03220032503223378092B05D12C206C
S31900004DA8072202E054200222022538235943084B5918EE314D
S31900004DBC0B78F0241C4025430D700B781B071B0F12011A43C6
S31900004DD00A7070BDB8170020B40200204010002005040000E4
S31900004DE479B588B001206A4610720C25332608A800780590B5
S31900004DF8820010187E4A10189E3000786A46907200202C299A
S31900004E0C01D110722D267A497A4A8A5C08AB1B789A4200D086
S31900004E200120049004980B2250430818039006A97448039AAC
S31900004E34101800F0E9F806A801788A07D20F69464A724178AE
S31900004E48092916D06D49039A515C6C4A039B9A1852786B46B7
S31900004E5C9B7A093B05D0173B042B07D99B1F05D005E004290C
S31900004E7002DB02D1042A00D141704078019001240598382164
S31900004E84484360490818E63000900198092803D00A2801D07A
S31900004E980B2826D155260098407E400933D000980178FC208C
S31900004EAC08400199092901D1012100E0022101430098017094
S31900004EC033260098407E4009012806D01FD3032807D004D316
S31900004ED4042806D019E0032517E0042515E0062513E0082541
S31900004EE811E0C2B26846017A08A8007800F020F90500019853
S31900004EFC002806D04048039908188079002800D102240098AA
S31900004F1085700098407AF02101400C4300984472019800991F
S31900004F24487004983821484336490818E6300178BF220A40E2
S31900004F386946497A89011143017030000AB070BDF1B582B0AF
S31900004F4C0E006846007A382148432C4908180190E73000787C
S31900004F60694608700124254F2548385C097A884201D1002532
S31900004F7400E001256A4629002048381800F0BCFC0199E63133
S31900004F886A4612784A704A7E52090CD100280AD10C208870F4
S31900004F9CC870132205216846007AFEF73BF95620FEBDA648F8
S31900004FB00B2255437A1910180278002A15D1F0224B7A1340B3
S31900004FC41C434C720B789B070DD16B461B78092B09D04B789F
S31900004FD8002B06D0007A002803D12240022010434872332E56
S31900004FEC01D13420FEBD2E20FEBD000040100020DC1C002039
S31900005000670900006B090000B402002070B50C000178827838
S31900005014237803251D43257003781D0343781E02F0231B0125
S3190000502833402B4385782D01F0262E401E430723334361700C
S3190000503C9BB2DB1F27D0882149015B1A23D0103B21D010393C
S319000050505B1A1ED0203B1CD010395B1A19D0303B17D010395A
S319000050645B1A08D0103B06D0103B04D0103B02D0103B0CD061
S3190000507804E0521D62702078FD2104E000F047F860702078C8
S3190000508CFE210140217070BD38B50C0001780B03427815029B
S319000050A0F02212012A401A4383781B01F0251D401543072200
S319000050B42A4361702178FE250D4002232B432370012192B20F
S319000050C8D21F23D088256D01521B13D0103A1DD0103D521B8E
S319000050DC0ED0203A18D0103D521B09D0303A13D0103D521B00
S319000050F004D0303A05D0103A0CD008E0FD20184002E0052009
S31900005104607020780143217031BD00F002F8607031BD017845
S31900005118052905D04278052A02D08078052801D109207047E8
S3190000512C914201D00A2070470B20704740B584B003001000C6
S319000051409A00D218924B9A189E3212780092002804D1142A1B
S319000051542AD0152A28D003201646093E20D0173E12D0761E8F
S319000051680BD0761E1ED0761E012E06D9B61E07D0761E07D018
S3190000517C761E0BD015E0002912D00BE0042810D1002901D0B8
S3190000519008200CE005200AE0042808D1002906D0062004E0D4
S319000051A4042801DA032000E0042004B040BD0300080099006E
S319000051B8C918754B59189E310978002804D114290ED0152925
S319000051CC0CD0032020390FD0491E07D0891E012904D9891EFF
S319000051E004D0491E06D0704704207047042802D1002A00D019
S319000051F405207047F8B5060038207043A24A1718E8203D5C4B
S31900005208B0008019604A10189E300078222800D103256A4638
S3190000521C300000F036F804002A0068460188300000F00DF99F
S31900005230E9373870A84201D10020F2BD002C01D00220F2BD43
S319000052440120F2BD6909000038B504006A46012100F01BF848
S31900005258050068460188200000F01CF9382044438848001913
S3190000526CE83041780278914205D141790079814201D100204C
S3190000528032BD002D01D0022032BD012032BDF4B582B0070024
S319000052940E000024002E02D000F07AF801E000F02CF8050072
S319000052A800AB9B1C6A4678493800FFF703FA3820784374491E
S319000052BC0818D83001780F2902DA008B69460880684600882B
S319000052D0A84200D805000B213800FEF7C7F9002809D06C482F
S319000052E4002E01D0808800E00088A84201D2012405000298C0
S319000052F805802000FEBD70B582B0810009180091214A5118DE
S3190000530C9E310D7861494A880B88022D1ED9EE1E1ED0B61F2F
S319000053201AD0F61F022E17D9F61E17D0761E012E12D90C3E61
S319000053340ED0761E032E0DD9361F012E08D9B61E08D0093E7E
S3190000534804D0203E02D0761E02D004E01C0002E0140000E00B
S3190000535C8C88312D0ED138246043494C2018D4300078000995
S31900005370800702D0487E181808E0087E101805E00098034975
S3190000538408189F300078201880B276BD4010002070B583B043
S31900005398810009180191A14A51189E310978A04BA04C1C1917
S319000053AC00946488009D2D880E0024D04E1E24D0761E24D02B
S319000053C0761E25D0B61F20D0F61F1AD0761E1AD0761E1AD08A
S319000053D4761E1BD0761E12D0761E12D00B3E0ED0761E032E68
S319000053E80DD9361F012E08D9B61E08D0093E04D0203E02D069
S319000053FC761E02D008E02A0006E0220004E0009AD28801E05E
S31900005410009A1289312910D1382148431B490818D43000782E
S319000054240009800703D08148185C281809E00098807F2018D6
S3190000543805E00198794908189F300078101880B27EBD10B559
S3190000544C03000C0010000E4942008A187A321288944214D2EA
S31900005460382058430818E6300178890708D101784A06D20F7D
S3190000547441781800FFF730F8002801D10C2010BD200000F02C
S31900005488ACF810BDB4020020FFFF000036030020A2170000B3
S3190000549CF0B587B007000E000120059038217943614A511826
S319000054B00391E63102918D788C7949786A465170029949790B
S319000054C45171029909788A09012111406A461170029909799C
S319000054D889090840694608710B213800FEF7C2F8C0B2B9007A
S319000054ECC9194D4A51189E31097800290DD010390BD0091F22
S3190000550009D00C3907D0491F012904D90B39012901D920398C
S3190000551401D10021059105990143C9B2049168460278417821
S319000055283800FEF7D7FF00906846027941793800FEF7D0FFF7
S3190000553C0099014209D0032002990978014204D10399EA3192
S319000055500978014213D0052D01D0052C02D1049800283CD1C2
S319000055646800334908187A3000886100304A51187A31098877
S31900005578401886422FDB0498002805D0052D00DB0425052CEF
S3190000558C00DB0424039FED370398E930009068002549081802
S319000055A07A3000886100234A51187A3109884018864202DB4F
S319000055B4009805700CE0700800F011F80C2809D0854200D9C6
S319000055C8050000990D70844200D904003C7002E0009A107063
S319000055DC387007B0F0BD80B500F00FF8032801DA0C2002BD8C
S319000055F001D1032002BD01000022121852085200801A081A38
S3190000560402BD01210A4A4B00D3187C331B88984203D3491CBA
S31900005618C9B20829F5DB080070470000401000202815000090
S3190000562C7602000096020000B4020020F3B585B00C250C263E
S3190000564000206946887000246846007D019081000818A5491A
S3190000565408189E3007783E206946487003A9A248FFF716FD6B
S3190000566802A9A148FFF712FD212F07D0232F05D0202F03D01F
S3190000567C242F01D0262F11D1994803A94978092902D00178EE
S3190000569003AA517002A94978092902D0C07A02A948703A202B
S319000056A46946487001983821484391490F18E6376846007EBE
S319000056B8019001283DD103A84078694608706846007B8107D5
S319000056CCC90F6846C1700078092803D00A2801D00B2819D171
S319000056E0012069468870787E40091AD004AA521C684601787C
S319000056F4007D00F084F805003978FC2008406946497C890795
S31900005708890F0143397069468C7006E068460A460178007D7D
S3190000571CFFF749FD0500BD706846007878703878BF21014026
S319000057306846C07880010843387002A845786846007A8107EE
S31900005744C90F68460170092D03D00A2D01D00B2D19D10124FC
S31900005758787E40091BD004AA29006846007D00F04CF80600D1
S3190000576C3879FC2101406846007C8007800F084338710024BC
S319000057800198022807D1BE7908E00A462900007DFFF70FFD5D
S3190000579406000198022808D17879854205D00124787E400968
S319000057A801D00024BE79BE717D713879BF21014068460078A6
S319000057BC80010843387168468078044301D0552017E001989B
S319000057D0022801D1492012E06846007BC107C90F6846007A77
S319000057E4C207D20F114206D0B878B979884202D13A206946D0
S319000057F848706846407807B0F0BD0300092901D1012100E00C
S3190000580C0221117038214B433749C918FF3109784909491E2C
S31900005820012904D9891E04D0491E04D07047032070470420FC
S31900005834704705207047B9B582B056206A46127A38235A437D
S319000058482A4B9A18E732019212786B465A70019A12791A70BE
S3190000585C01240125254F002903D0022918D00ED31DE000AADC
S31900005870521C380000F042F805006A460121380000F03CF81B
S3190000588404003B200FE000AA521C0021380000F033F805002B
S319000058983F2006E06A460121380000F02BF804004A2001998C
S319000058AC097E490917D1002D01D0002C13D168464078019913
S319000058C0087068460078019908710C200199887001998871CC
S319000058D4132205216846007AFDF7A0FC562004B0B0BD000010
S319000058E8401000204726002052260020B402002043260020B2
S319000058FC30B5030001200B2569435918497A491E03D0491ED8
S31900005910012902D922BD092000E00A201070002022BD38B4FB
S31900005924012100220368001D002B0BD00468001D0C4202D0EE
S319000059384D466D1E64192260241D1B1FF0D0FAE732BC704777
S3190000594CF2B582B004006E460721FDF789FE7080B24F6100BB
S31900005960791808863079F921014031712000FEF795FD327916
S31900005974E7211140C000182202400A433271DF201040B34949
S319000059880978CA07910E014331716846007A30706846007A3E
S3190000599C272804D0282807D047280AD00EE06946200000F0B1
S319000059B041F808E06946200000F0A2F803E06946200000F0C1
S319000059C433F9050038206043A2490818EE30CF21EDB22A00BB
S319000059D84D3A012A15D9921E032A1CD8027ACF2313409C46A1
S319000059EC530030221A4063461A43102313430372027812070B
S31900005A00120F20231343037009E0027ACF2313409C46530080
S31900005A1420221340624613430372427811403279D200302395
S31900005A2813400B4343703D552800FEBDF2B582B00979C90671
S31900005A3C890F01913821484384490918EE316846029A538810
S31900005A50038080220F230198032810D1009800B25401A042BF
S31900005A640BD0087803401A430A70029800790621014302989B
S31900005A7801711920FEBD4F20F924009E36B25701BE4230D044
S31900005A8C90277F01BE4233D0A8277F01BE4210D0B0277F0140
S31900005AA0BE4215D0B8277F01BE4211D0C0277F01BE4224D16B
S31900005AB429200A78134070221BE0019E022E1CD12920029D89
S31900005AC82D792C40022508E0029E3679B60612D52920029DC9
S31900005ADC2D792C4004252543029C25710C78234003E04D20A2
S31900005AF00A78134010221A430A70FEBD5020FEBDF3B50979AE
S31900005B04C906890F019A127901231343019A13713822504374
S31900005B184F4A1218EE320224F0231078184002250543157083
S31900005B2C019D285F0F2503290FD1494EB0420CD010780540C8
S31900005B404020284310700198007906210143019801711A203E
S31900005B54F6BD80B200905120009E3F4FF61B50D0761E012E31
S31900005B6855D9361F012E52D9F61E50D0FC277F00F61B52D03D
S31900005B7CB61E50D0374FF61B21D0B61E1FD0F61E0FD0F61EC9
S31900005B900DD0BF1FF61B23D0B61E21D0F61E06D0F61E3FD169
S31900005BA42B2011780B401370F6BD022938D12A2001990979F8
S31900005BB8F9230B401C4301990C7111780D40402128E002298C
S31900005BCC2AD1292001990979F9230B401C4301990C710EE094
S31900005BE0019B1B7906241C43019B1C71022905D0012917D1B7
S31900005BF400991B4B994213D1292011780D4080210AE04E20C1
S31900005C0811780D40102129431170112103E011780D40202162
S31900005C1C29431170F6BD5220F6BD000048180020382250433C
S31900005C30094A1218EE32107803071B0F0220085E182802D166
S31900005C444520502101E053206021194311707047CE11002008
S31900005C58B402002010100000FE02000010180000444801681F
S31900005C6C491C01607047424800687047884201D3401A704749
S31900005C800022D243511A0818704710B50C0001003A480068D5
S31900005C94FFF7F0FF844201D2012010BD002010BD38B5354D2E
S31900005CA835482881A87AFC210140A972334CE068083000F032
S31900005CBC97F855216054605C002804D131BD6868010000D0CD
S31900005CD08047E06829890180083000F087F855216054605CEB
S31900005CE40028F0D102211034200000F089F800BF2149088113
S31900005CF87047204A5060907AFD230340480002210840184346
S31900005D0C9072704780B51A48817A01220A438272018907E05D
S31900005D2080B51648817AFE220A408272144901817420FDF716
S31900005D3416FF01BD1048817AC807C00F704738B504000D4894
S31900005D48056821002800FFF79CFF0028F9D031BD70B50400F2
S31900005D5C0D00002C09D00648066800E0A84721003000FFF749
S31900005D708CFF0028F8D070BD00000000901C0020FFFF0000A7
S31900005D84D81800201206130A1A43130C1A4300BF094205D008
S31900005D9883070BD00270401C491EF9D1704700001206130AA1
S31900005DAC1A43130C1A4300BF130030B414001500103902D307
S31900005DC010393CC0FCD2490700D30CC000D504C0890002D3D0
S31900005DD40280801C002900D5027030BC704700000022D5E7A6
S31900005DE80022E3E7F0C042464B4654465D466E467746FCC082
S31900005DFC2838F0C800207047002900D1491C1030FCC8BE4637
S31900005E10B546AB46A246994690462838F0C80800704710B553
S31900005E24040010000A0001002000FFF7ABFF200010BD000098
S31900005E3880B5774AA821102002F04CFA0122D821102002F0EB
S31900005E4C47FA1420FFF777FF00210C2000F006FB01BDF3B5B7
S31900005E6083B000200190C02260216C48FFF79CFF6846007B73
S31900005E74002801D1FFF7DEFF02229C21102002F02BFA0025FA
S31900005E8800246B4601229C21200002F037FA684600880228A8
S31900005E9C00D089E06B4601229D21200002F02CFA0120A040E8
S31900005EB06946488068460088002810D0684600888008C0079E
S31900005EC4049805D58088498801430498818004E04088498817
S31900005ED801430498418002AB01229E21200002F00DFA062041
S31900005EEC60434C490E1868460089400AB178FC220A408107A4
S31900005F00890F1143B1706946098931800C218007000F0F1A9C
S31900005F14FFB2042F11D102203071B078C3210140BA003C2087
S31900005F2810400843B0708106890E000980010843B070002071
S31900005F3C57E0082F2BD16B460122D721200002F0DBF9684681
S31900005F500088010AC90701D5002101E0042701213171400AC3
S31900005F64C007F07802D50121014301E0FE210140F1706B4664
S31900005F780122D121200002F0C1F9F07869460988C90703D5DE
S31900005F8CFD210140F170C4E703210143FAE70121A140C84339
S31900005FA0049989880140049A9180049949880840049948802E
S31900005FB4641CE4B20C2C00DA65E704980088002806D00198A4
S31900005FC8401CC0B20190022800D048E705B0F0BD22010107AA
S31900005FDC090F1143B54AEDB20E4B5B1999546D1C401CB178D9
S31900005FF08906090FC0B28842EED3049800886946498801430B
S319000060040498018001980028D2D13C20FFF797FED3E7000060
S31900006018CDAB0000B4250020DC1C0020F1B586B06846007EDD
S3190000602C0C2805D10026049010206946087604E06846067E23
S31900006040701CC0B204900022AA216846007E02F045F9182231
S31900006054C8216846007E02F03FF9974AC9216846007E02F00A
S3190000606839F9954ACA216846007E02F033F9934AA921684683
S3190000607C007E02F02DF9914C2200F6216846007E02F026F921
S319000060902200F7216846007E02F020F9FF24240122000821F2
S319000060A46846007E02F018F922003A216846007E02F012F90D
S319000060B86846007E039073E0F0B2FCF770FB00286DD0B42083
S319000060CC70437F49081802900398102830D1029BEA330422D9
S319000060E0CC21F0B202F00EF9002400256B46012229002E3971
S319000060F4C9B2F0B202F004F90020694609888200D140090783
S31900006108090F6A465180E4B276A31B5D591A062373436C4FB0
S3190000611CFB5A6C4FBB4200D10021029B1A19A0321170401CEB
S31900006130641C0428E3DB6D1C022DD7DB6B460122D721F0B213
S3190000614402F0DEF8684600880299E83108700398102806D16D
S31900006158684600884005C10FF0B200F07CF86B4604221221D2
S3190000616CF0B202F0C9F86B4604224421F0B202F0C3F86B4688
S3190000618001229821F0B202F0BDF868460088514901400C20A3
S31900006194084369460880684602889821F0B202F09BF8761CC5
S319000061A80498864288DB4A4D4A48007800070FD5F1208000F9
S319000061BC285AFF2156314143C82040000818C8218900FCF76F
S319000061D05AFF020292B201E0AB22120297216846007E02F07C
S319000061E47BF83E4A99216846007E02F075F80022012168466F
S319000061F8007E02F06FF8002233216846007E02F069F800229F
S3190000620C65216846007E02F063F800242200A6216846007E40
S3190000622002F05CF8641C042CF6DB02229C216846007E02F09E
S3190000623453F8002406E042886846007E02F04CF8641CE4B2B9
S319000062482648A100691808180178FF2901D0102CEFDB07B05D
S3190000625CF0BD38B5050000290FD16B460122D42102F04AF883
S319000062706C46A31C0122D121280002F043F86088000A608067
S3190000628401E0184800900020B42169430E4A51180918F23189
S319000062980A78E3231340009A5207D20E1A430A700099C908FD
S319000062AC0091401C0828EBDB31BD0000D80800003759000097
S319000062C082BF0000FFFF000049020000DC1C0020C24A000016
S319000062D4C0FF000028150000D6110020610B0000320300000C
S319000062E8244992000B0809070707080908B4024B9C4608BCAC
S319000062FC6047C046D901002008B4024B9C4608BC6047C04685
S31900006310E9010020F8B504000F0015001E00FFF7E9FF266012
S31900006324277128007843E080002020817D43E91B6181618933
S31900006338E181207360732082FFF7E0FFF1BD10B50400FFF79F
S3190000634CD3FF00202081E1882279891A6181E1812073607353
S319000063605DE0407B704738B504000D00FFF7C2FF207B0028FC
S3190000637403D0FFF7C5FF002032BD227929002089236818184B
S3190000638800F090F9208921794018208180B2E188FCF772FE48
S3190000639C2181607B401C6073208A401C208220896189884236
S319000063B001D101202073FFF7A5FF012032BDF8B504000E00E4
S319000063C40025FFF795FF607B00281BD027796089C0196081DF
S319000063D880B2E188FCF750FE61813A006089216809183000F0
S319000063EC00F05EF9607B401E6073C0B2218A884202D22082E7
S319000064006089E08125730125FFF77CFF2800F2BD10B5040069
S31900006414FFF76EFF6089E081607B2082FFF770FF10BD70B5ED
S3190000642804000D000026FFF761FF208A002813D02679E08910
S3190000643C8019E08180B2E188FCF71CFEE1813200E08921681E
S319000064500918280000F02AF9208A401E20820126FFF750FFC0
S31900006464300070BD80B50C2800D110200A009A2101F032FF70
S3190000647801BD80B542884178007801F02BFF01BD80B5831C6F
S3190000648C01224178007801F037FF01BDF0B583B00F000100D5
S319000064A0802908D100243900200000F04FF8641C0C2C4ADAD0
S319000064B4F7E70200813A0D2A05D239007F30C0B200F042F8A1
S319000064C8F7BD5048504A5118081800900078040901262000EF
S319000064DCFCF763F9002804D14B480088E04030402DD00F257E
S319000064F000980078284069460871012268460079824092B2A2
S31900006504A521200001F0E8FE68460179200000F085F8009873
S31900006518027810460F21114089001209B4235A43394B9A18CA
S3190000652C5118C8310540AA000009B4235843354B1818801841
S31900006540C8300068BE4006430E60F7BDF0B583B004000F008D
S31900006554FCF727F9002855D02E4D2A00A521200001F0BAFE99
S319000065682C4E3200F621200001F0B4FE3200F721200001F038
S3190000657CAFFE6B4601220821200001F0BDFE684600882840F1
S3190000659069460880684602880821200001F09EFE6B460122D8
S319000065A43A21200001F0ACFE684600880540684605802A46A9
S319000065B83A21200001F08EFE6B4604221221200001F09CFE1C
S319000065CC6B4604224421200001F096FE00200D490CE08200F0
S319000065E0B4236343CB189A18C83213680125BD401D43156022
S319000065F4401CC0B2062262438A1892789206120F9042EADBF6
S31900006608F7BD0000D8080000DC1C00202E260020FF0F00004A
S3190000661C49020000F8B507000D00AC08694620000A3888709B
S319000066306B46012268468178380001F063FEAE07B60F700061
S319000066448019012569460988072282409143012282400A434C
S319000066586846028002888178380001F03BFE6846322161436E
S3190000666C083181706B4601228178380001F044FE684601887B
S3190000668030000C308540A9436846018002888178380001F008
S3190000669423FE6B46012232204443A1191231C9B2380001F07D
S319000066A82DFEF1BD10B50400FDF7D6FF200010BDFFB583B099
S319000066BC5278002A05D0022A09D005D3032A09D00AE000240A
S319000066D0012507E00124022504E00224032501E003240425F4
S319000066E469460E7CBB218900F200714B9A185118059A12780C
S319000066F8072A16D801A39B5C9F4400BF080C1014181C20247C
S3190000670C08780CE048780AE0887808E0C87806E0087904E0EA
S31900006720487902E0887900E0C879A0216A46127BB4235A4328
S31900006734604B9A18921951567A22511A50434A108018FCF71D
S319000067489EFC0190FF2801D9FF200190B708322078436946E0
S3190000675CC870B107890F49084618B61D6B460122F1B26846F4
S31900006770007B01F0C7FD6846007CC107080F69460988FF2275
S3190000678482409143019AD2B282400A43684602800288F1B2DA
S31900006798007B01F09FFD6B4601226846C178007B01F0ACFD0F
S319000067AC6846007C8007800F69468870684680784000098875
S319000067C0032282409143E4B284400C43012069468978083151
S319000067D488408443684604800288C178007B01F07BFD684695
S319000067E8007E00281BD03E000A3E6B460122F1B26846007BE0
S319000067FC01F082FD68468078410008186946098807228240E1
S319000068109143EDB285400D43684605800288F1B2007B01F01A
S319000068245BFD3220474308376B460122F9B26846007B01F04E
S3190000683865FD01206946897888400599C97800296946098803
S3190000684C03D008436946088002E081436846018068460288D0
S31900006860F9B2007B01F03AFD07B0F0BDF8B506000D002F007D
S31900006874B42070430F490818C019EA300478002A05D060003D
S31900006888C01C0621FCF7F8FB04006D08343D6B460122E9B2B4
S3190000689C300001F031FD6846F907C90F44540288E9B2300020
S319000068B056E0000028150000DC1C0020F8B507000D0016006C
S319000068C4AC083220444308346B460122E1B2380001F016FD4E
S319000068D8A907890F0831C9B201208840002E6946098803D080
S319000068EC08436946088002E08143684601802DE0F8B507007A
S319000069000D001600AC083220444308346B460122E1B23800F2
S3190000691401F0F6FCB4207843094908184019F230017801226E
S31900006928AD07AD0F0C350123AB40002E08D06D462D882B43B9
S3190000693C6D462B800A4308E0DC1C00206A4612889A436B46BE
S319000069501A80FE220A40027068460288E1B2380001F0BCFC0B
S31900006964F1BD0000F1B596B00D000020089016A80478CD486B
S31900006978CD490919085C10900DAB0122962116A8007801F010
S3190000698CBBFC0E206043C84909186846808E8005800D0A7BE4
S319000069A0520088520A7B521C0A73D2B2062A06D14A7B002AC7
S319000069B401D101224A7300220A73B4226243BB4B9A180492AF
S319000069C848320192FC2636024A7B002A13D0002000225300E7
S319000069DCCB5AC01880B2521C062AF8DB01990F883740C01C7D
S319000069F00621FCF745FB8005800D384303E001990988314027
S31900006A04084301990880019800888005800DA94940180D2859
S31900006A1811D3A8486100A44A511808180178FF2901D0491CE1
S31900006A2C017001980088064080208000304301990880684615
S31900006A40019909888905890D4181002D0BD105AB0122A4218A
S31900006A5416A8007801F054FC6846808A000997490870062072
S31900006A68444391480019807880090F9007206946087211A872
S31900006A7C0C90002006E000200870641C042C50DB0398401CF4
S31900006A90039003980F99884200DBB4E0002805D0042069460D
S31900006AA4087211A8801D0C900C9B6846027A03993520414326
S31900006AB80B31C9B216A8007801F020FC039800280BD111A872
S31900006ACC4088400269464989FCF7D7FAFF2800DDFF2080B20C
S31900006AE006900198808906214843401D80B20A21FCF7C6FA45
S31900006AF406998900401880B2019A9081401D0A21FCF7BCFAF9
S31900006B0880B29B2806DAD04996225043081A0004000E06E020
S31900006B1CCD49FF2226325043081A0004800E07900024039833
S31900006B3080000519EDB210982841C00702D50226082101E02D
S31900006B440326072139226800049B18180B9088300A900088DF
S31900006B58AB00049FFB1809939B6D0E930B9B783300935B78C6
S31900006B6C0B93630011AFFB18DB88DF0B06D09A04920C732A3F
S31900006B8001DB732200E01A00089BAF401F43BFB20897009BF1
S31900006B941A70D2B20B9BDBB2D7184843401D80B20A21FCF77F
S31900006BA86BFA0090781C0004400C0A21414389B24E4330004F
S31900006BBC0A21FCF75FFA009908180A99088080B2401D0A21AA
S31900006BD0FCF756FA0E9949004200153292B2BFB2BA4202D26A
S31900006BE40A0001211143099A9165049949199831079A92B2D1
S31900006BF880B2824200D340E7079A801A3EE7089801998880F1
S31900006C0C069801990881069989B2BB484843BB30BB21490035
S31900006C20FCF731FAB849401A00B2401D0A21FCF727FA05B2DC
S31900006C3411A80088400269464989FCF722FA8024E400A042C9
S31900006C4800DB601EE821049A5156421892B2C821890148082A
S31900006C5C1A2D08DA160019235B1B5A431018FCF709FA351825
S31900006C7006E01600193D6A431018FCF701FA351AADB20199AD
S31900006C84CD8011A88088400269464989FCF7F9F9A04200DB83
S31900006C98601E01994881CF4801684919016017B0F0BD00004A
S31900006CACB8080000DC1C00201017002006FEFFFF520D00004E
S31900006CC042260020F1B594B014A8007806214143C34A5118F3
S31900006CD4897889090E91002105910891B42148431018079005
S31900006CE848300490018985484843BB30BB214900FCF7C5F9E3
S31900006CFC8249401A00B2401D0A21FCF7BBF96946888600209B
S31900006D103FE008800A9845700C9840000690701D0A21FCF746
S31900006D24ADF940001530EDB269468978691880B289B2884223
S31900006D3803D2069801210143069106980999886508980B9960
S31900006D4C09884908401808900FA8C51928898005400B0499A8
S31900006D6009888905890DFCF78EF98021C900884200DB481E75
S31900006D740399B83108802A890199C9B214A8007800F0C2F852
S31900006D88641C042C12DB0298401C029002980E9988424BDA9C
S31900006D9C0FAB08220146322041430E31C9B214A8007801F0FD
S31900006DB0A9FA0024029880000019C0B2019000258000079987
S31900006DC408180990806D0C900198400007990818039088308F
S31900006DD80688039878300A9000786946887067000FA8C05BDE
S31900006DEC088068460088C00B059A019B01009940114389B260
S31900006E0005910399A8310B91002882D0684600888504AD0CDF
S31900006E140D9B1BB22A000199C9B214A8007800F019F8732DDB
S31900006E2801DB732572E7684605886FE7059804994880059853
S31900006E3C0499888068480168089A8918016015B0F0BD000068
S31900006E50B56B000038F50000F8B517001D00B42250435F4AE8
S31900006E6414180E00A01900903900A020009A105648433D30A0
S31900006E787A21FCF701F9381A80B271006418A834522831DBA5
S31900006E8CA72189000A225643544A92195618B188002D01D5E3
S31900006EA0491C02E0472D01DB491E89B232897388012541433F
